{
  "contractName": "SafemoonFork",
  "abi": [
    {
      "inputs": [
        {
          "internalType": "address",
          "name": "dexAddress",
          "type": "address"
        }
      ],
      "stateMutability": "nonpayable",
      "type": "constructor"
    },
    {
      "anonymous": false,
      "inputs": [
        {
          "indexed": true,
          "internalType": "address",
          "name": "owner",
          "type": "address"
        },
        {
          "indexed": true,
          "internalType": "address",
          "name": "spender",
          "type": "address"
        },
        {
          "indexed": false,
          "internalType": "uint256",
          "name": "value",
          "type": "uint256"
        }
      ],
      "name": "Approval",
      "type": "event"
    },
    {
      "anonymous": false,
      "inputs": [
        {
          "indexed": false,
          "internalType": "uint256",
          "name": "minTokensBeforeSwap",
          "type": "uint256"
        }
      ],
      "name": "MinTokensBeforeSwapUpdated",
      "type": "event"
    },
    {
      "anonymous": false,
      "inputs": [
        {
          "indexed": true,
          "internalType": "address",
          "name": "previousOwner",
          "type": "address"
        },
        {
          "indexed": true,
          "internalType": "address",
          "name": "newOwner",
          "type": "address"
        }
      ],
      "name": "OwnershipTransferred",
      "type": "event"
    },
    {
      "anonymous": false,
      "inputs": [
        {
          "indexed": false,
          "internalType": "uint256",
          "name": "tokensSwapped",
          "type": "uint256"
        },
        {
          "indexed": false,
          "internalType": "uint256",
          "name": "ethReceived",
          "type": "uint256"
        },
        {
          "indexed": false,
          "internalType": "uint256",
          "name": "tokensIntoLiqudity",
          "type": "uint256"
        }
      ],
      "name": "SwapAndLiquify",
      "type": "event"
    },
    {
      "anonymous": false,
      "inputs": [
        {
          "indexed": false,
          "internalType": "bool",
          "name": "enabled",
          "type": "bool"
        }
      ],
      "name": "SwapAndLiquifyEnabledUpdated",
      "type": "event"
    },
    {
      "anonymous": false,
      "inputs": [
        {
          "indexed": true,
          "internalType": "address",
          "name": "from",
          "type": "address"
        },
        {
          "indexed": true,
          "internalType": "address",
          "name": "to",
          "type": "address"
        },
        {
          "indexed": false,
          "internalType": "uint256",
          "name": "value",
          "type": "uint256"
        }
      ],
      "name": "Transfer",
      "type": "event"
    },
    {
      "inputs": [],
      "name": "_liquidityFee",
      "outputs": [
        {
          "internalType": "uint256",
          "name": "",
          "type": "uint256"
        }
      ],
      "stateMutability": "view",
      "type": "function",
      "constant": true
    },
    {
      "inputs": [],
      "name": "_maxTxAmount",
      "outputs": [
        {
          "internalType": "uint256",
          "name": "",
          "type": "uint256"
        }
      ],
      "stateMutability": "view",
      "type": "function",
      "constant": true
    },
    {
      "inputs": [],
      "name": "_taxFee",
      "outputs": [
        {
          "internalType": "uint256",
          "name": "",
          "type": "uint256"
        }
      ],
      "stateMutability": "view",
      "type": "function",
      "constant": true
    },
    {
      "inputs": [],
      "name": "geUnlockTime",
      "outputs": [
        {
          "internalType": "uint256",
          "name": "",
          "type": "uint256"
        }
      ],
      "stateMutability": "view",
      "type": "function",
      "constant": true
    },
    {
      "inputs": [
        {
          "internalType": "uint256",
          "name": "time",
          "type": "uint256"
        }
      ],
      "name": "lock",
      "outputs": [],
      "stateMutability": "nonpayable",
      "type": "function"
    },
    {
      "inputs": [],
      "name": "owner",
      "outputs": [
        {
          "internalType": "address",
          "name": "",
          "type": "address"
        }
      ],
      "stateMutability": "view",
      "type": "function",
      "constant": true
    },
    {
      "inputs": [],
      "name": "renounceOwnership",
      "outputs": [],
      "stateMutability": "nonpayable",
      "type": "function"
    },
    {
      "inputs": [],
      "name": "swapAndLiquifyEnabled",
      "outputs": [
        {
          "internalType": "bool",
          "name": "",
          "type": "bool"
        }
      ],
      "stateMutability": "view",
      "type": "function",
      "constant": true
    },
    {
      "inputs": [
        {
          "internalType": "address",
          "name": "newOwner",
          "type": "address"
        }
      ],
      "name": "transferOwnership",
      "outputs": [],
      "stateMutability": "nonpayable",
      "type": "function"
    },
    {
      "inputs": [],
      "name": "uniswapV2Pair",
      "outputs": [
        {
          "internalType": "address",
          "name": "",
          "type": "address"
        }
      ],
      "stateMutability": "view",
      "type": "function",
      "constant": true
    },
    {
      "inputs": [],
      "name": "uniswapV2Router",
      "outputs": [
        {
          "internalType": "contract IUniswapV2Router02",
          "name": "",
          "type": "address"
        }
      ],
      "stateMutability": "view",
      "type": "function",
      "constant": true
    },
    {
      "inputs": [],
      "name": "unlock",
      "outputs": [],
      "stateMutability": "nonpayable",
      "type": "function"
    },
    {
      "stateMutability": "payable",
      "type": "receive",
      "payable": true
    },
    {
      "inputs": [
        {
          "internalType": "address",
          "name": "_newDexAddress",
          "type": "address"
        }
      ],
      "name": "updateDex",
      "outputs": [],
      "stateMutability": "nonpayable",
      "type": "function"
    },
    {
      "inputs": [],
      "name": "name",
      "outputs": [
        {
          "internalType": "string",
          "name": "",
          "type": "string"
        }
      ],
      "stateMutability": "view",
      "type": "function",
      "constant": true
    },
    {
      "inputs": [],
      "name": "symbol",
      "outputs": [
        {
          "internalType": "string",
          "name": "",
          "type": "string"
        }
      ],
      "stateMutability": "view",
      "type": "function",
      "constant": true
    },
    {
      "inputs": [],
      "name": "decimals",
      "outputs": [
        {
          "internalType": "uint8",
          "name": "",
          "type": "uint8"
        }
      ],
      "stateMutability": "view",
      "type": "function",
      "constant": true
    },
    {
      "inputs": [],
      "name": "totalSupply",
      "outputs": [
        {
          "internalType": "uint256",
          "name": "",
          "type": "uint256"
        }
      ],
      "stateMutability": "view",
      "type": "function",
      "constant": true
    },
    {
      "inputs": [
        {
          "internalType": "address",
          "name": "account",
          "type": "address"
        }
      ],
      "name": "balanceOf",
      "outputs": [
        {
          "internalType": "uint256",
          "name": "",
          "type": "uint256"
        }
      ],
      "stateMutability": "view",
      "type": "function",
      "constant": true
    },
    {
      "inputs": [
        {
          "internalType": "address",
          "name": "recipient",
          "type": "address"
        },
        {
          "internalType": "uint256",
          "name": "amount",
          "type": "uint256"
        }
      ],
      "name": "transfer",
      "outputs": [
        {
          "internalType": "bool",
          "name": "",
          "type": "bool"
        }
      ],
      "stateMutability": "nonpayable",
      "type": "function"
    },
    {
      "inputs": [
        {
          "internalType": "address",
          "name": "owner",
          "type": "address"
        },
        {
          "internalType": "address",
          "name": "spender",
          "type": "address"
        }
      ],
      "name": "allowance",
      "outputs": [
        {
          "internalType": "uint256",
          "name": "",
          "type": "uint256"
        }
      ],
      "stateMutability": "view",
      "type": "function",
      "constant": true
    },
    {
      "inputs": [
        {
          "internalType": "address",
          "name": "spender",
          "type": "address"
        },
        {
          "internalType": "uint256",
          "name": "amount",
          "type": "uint256"
        }
      ],
      "name": "approve",
      "outputs": [
        {
          "internalType": "bool",
          "name": "",
          "type": "bool"
        }
      ],
      "stateMutability": "nonpayable",
      "type": "function"
    },
    {
      "inputs": [
        {
          "internalType": "address",
          "name": "sender",
          "type": "address"
        },
        {
          "internalType": "address",
          "name": "recipient",
          "type": "address"
        },
        {
          "internalType": "uint256",
          "name": "amount",
          "type": "uint256"
        }
      ],
      "name": "transferFrom",
      "outputs": [
        {
          "internalType": "bool",
          "name": "",
          "type": "bool"
        }
      ],
      "stateMutability": "nonpayable",
      "type": "function"
    },
    {
      "inputs": [
        {
          "internalType": "address",
          "name": "spender",
          "type": "address"
        },
        {
          "internalType": "uint256",
          "name": "addedValue",
          "type": "uint256"
        }
      ],
      "name": "increaseAllowance",
      "outputs": [
        {
          "internalType": "bool",
          "name": "",
          "type": "bool"
        }
      ],
      "stateMutability": "nonpayable",
      "type": "function"
    },
    {
      "inputs": [
        {
          "internalType": "address",
          "name": "spender",
          "type": "address"
        },
        {
          "internalType": "uint256",
          "name": "subtractedValue",
          "type": "uint256"
        }
      ],
      "name": "decreaseAllowance",
      "outputs": [
        {
          "internalType": "bool",
          "name": "",
          "type": "bool"
        }
      ],
      "stateMutability": "nonpayable",
      "type": "function"
    },
    {
      "inputs": [
        {
          "internalType": "address",
          "name": "account",
          "type": "address"
        }
      ],
      "name": "isExcludedFromReward",
      "outputs": [
        {
          "internalType": "bool",
          "name": "",
          "type": "bool"
        }
      ],
      "stateMutability": "view",
      "type": "function",
      "constant": true
    },
    {
      "inputs": [],
      "name": "totalFees",
      "outputs": [
        {
          "internalType": "uint256",
          "name": "",
          "type": "uint256"
        }
      ],
      "stateMutability": "view",
      "type": "function",
      "constant": true
    },
    {
      "inputs": [
        {
          "internalType": "uint256",
          "name": "tAmount",
          "type": "uint256"
        }
      ],
      "name": "deliver",
      "outputs": [],
      "stateMutability": "nonpayable",
      "type": "function"
    },
    {
      "inputs": [
        {
          "internalType": "uint256",
          "name": "tAmount",
          "type": "uint256"
        },
        {
          "internalType": "bool",
          "name": "deductTransferFee",
          "type": "bool"
        }
      ],
      "name": "reflectionFromToken",
      "outputs": [
        {
          "internalType": "uint256",
          "name": "",
          "type": "uint256"
        }
      ],
      "stateMutability": "view",
      "type": "function",
      "constant": true
    },
    {
      "inputs": [
        {
          "internalType": "uint256",
          "name": "rAmount",
          "type": "uint256"
        }
      ],
      "name": "tokenFromReflection",
      "outputs": [
        {
          "internalType": "uint256",
          "name": "",
          "type": "uint256"
        }
      ],
      "stateMutability": "view",
      "type": "function",
      "constant": true
    },
    {
      "inputs": [
        {
          "internalType": "address",
          "name": "account",
          "type": "address"
        }
      ],
      "name": "excludeFromReward",
      "outputs": [],
      "stateMutability": "nonpayable",
      "type": "function"
    },
    {
      "inputs": [
        {
          "internalType": "address",
          "name": "account",
          "type": "address"
        }
      ],
      "name": "includeInReward",
      "outputs": [],
      "stateMutability": "nonpayable",
      "type": "function"
    },
    {
      "inputs": [
        {
          "internalType": "address",
          "name": "account",
          "type": "address"
        }
      ],
      "name": "excludeFromFee",
      "outputs": [],
      "stateMutability": "nonpayable",
      "type": "function"
    },
    {
      "inputs": [
        {
          "internalType": "address",
          "name": "account",
          "type": "address"
        }
      ],
      "name": "includeInFee",
      "outputs": [],
      "stateMutability": "nonpayable",
      "type": "function"
    },
    {
      "inputs": [
        {
          "internalType": "uint256",
          "name": "taxFee",
          "type": "uint256"
        }
      ],
      "name": "setTaxFeePercent",
      "outputs": [],
      "stateMutability": "nonpayable",
      "type": "function"
    },
    {
      "inputs": [
        {
          "internalType": "uint256",
          "name": "liquidityFee",
          "type": "uint256"
        }
      ],
      "name": "setLiquidityFeePercent",
      "outputs": [],
      "stateMutability": "nonpayable",
      "type": "function"
    },
    {
      "inputs": [
        {
          "internalType": "uint256",
          "name": "maxTxPercent",
          "type": "uint256"
        }
      ],
      "name": "setMaxTxPercent",
      "outputs": [],
      "stateMutability": "nonpayable",
      "type": "function"
    },
    {
      "inputs": [
        {
          "internalType": "bool",
          "name": "_enabled",
          "type": "bool"
        }
      ],
      "name": "setSwapAndLiquifyEnabled",
      "outputs": [],
      "stateMutability": "nonpayable",
      "type": "function"
    },
    {
      "inputs": [
        {
          "internalType": "address",
          "name": "account",
          "type": "address"
        }
      ],
      "name": "isExcludedFromFee",
      "outputs": [
        {
          "internalType": "bool",
          "name": "",
          "type": "bool"
        }
      ],
      "stateMutability": "view",
      "type": "function",
      "constant": true
    }
  ],
  "bytecode": "0x608060405269d3c21bcecceda1000000600955600954600019620000249190620006b7565b6000196200003391906200071e565b600a556040518060400160405280600c81526020017f536166656d6f6f6e466f726b0000000000000000000000000000000000000000815250600c908051906020019062000083929190620005ce565b506040518060400160405280600c81526020017f534146454d4f4f4e464f524b0000000000000000000000000000000000000000815250600d9080519060200190620000d1929190620005ce565b506009600e60006101000a81548160ff021916908360ff1602179055506005600f55600f5460105560056011556011546012556001601460156101000a81548160ff02191690831515021790555069010f0cf064dd59200000601555681b1ae4d6e2ef5000006016553480156200014757600080fd5b50604051620060473803806200604783398181016040528101906200016d9190620007c3565b60006200017f6200059d60201b60201c565b9050806000806101000a81548173ffffffffffffffffffffffffffffffffffffffff021916908373ffffffffffffffffffffffffffffffffffffffff1602179055508073ffffffffffffffffffffffffffffffffffffffff16600073ffffffffffffffffffffffffffffffffffffffff167f8be0079c531659141344cd1fd0a4f28419497f9722a3daafe3b4186f6b6457e060405160405180910390a350600a5460036000620002346200059d60201b60201c565b73ffffffffffffffffffffffffffffffffffffffff1673ffffffffffffffffffffffffffffffffffffffff1681526020019081526020016000208190555060008190508073ffffffffffffffffffffffffffffffffffffffff1663c45a01556040518163ffffffff1660e01b8152600401602060405180830381865afa158015620002c3573d6000803e3d6000fd5b505050506040513d601f19601f82011682018060405250810190620002e99190620007c3565b73ffffffffffffffffffffffffffffffffffffffff1663c9c65396308373ffffffffffffffffffffffffffffffffffffffff1663ad5c46486040518163ffffffff1660e01b8152600401602060405180830381865afa15801562000351573d6000803e3d6000fd5b505050506040513d601f19601f82011682018060405250810190620003779190620007c3565b6040518363ffffffff1660e01b81526004016200039692919062000806565b6020604051808303816000875af1158015620003b6573d6000803e3d6000fd5b505050506040513d601f19601f82011682018060405250810190620003dc9190620007c3565b601460006101000a81548173ffffffffffffffffffffffffffffffffffffffff021916908373ffffffffffffffffffffffffffffffffffffffff16021790555080601360006101000a81548173ffffffffffffffffffffffffffffffffffffffff021916908373ffffffffffffffffffffffffffffffffffffffff16021790555060016006600062000473620005a560201b60201c565b73ffffffffffffffffffffffffffffffffffffffff1673ffffffffffffffffffffffffffffffffffffffff16815260200190815260200160002060006101000a81548160ff0219169083151502179055506001600660003073ffffffffffffffffffffffffffffffffffffffff1673ffffffffffffffffffffffffffffffffffffffff16815260200190815260200160002060006101000a81548160ff0219169083151502179055506200052c6200059d60201b60201c565b73ffffffffffffffffffffffffffffffffffffffff16600073ffffffffffffffffffffffffffffffffffffffff167fddf252ad1be2c89b69c2b068fc378daa952ba7f163c4a11628f55a4df523b3ef6009546040516200058d919062000844565b60405180910390a35050620008c5565b600033905090565b60008060009054906101000a900473ffffffffffffffffffffffffffffffffffffffff16905090565b828054620005dc9062000890565b90600052602060002090601f0160209004810192826200060057600085556200064c565b82601f106200061b57805160ff19168380011785556200064c565b828001600101855582156200064c579182015b828111156200064b5782518255916020019190600101906200062e565b5b5090506200065b91906200065f565b5090565b5b808211156200067a57600081600090555060010162000660565b5090565b6000819050919050565b7f4e487b7100000000000000000000000000000000000000000000000000000000600052601260045260246000fd5b6000620006c4826200067e565b9150620006d1836200067e565b925082620006e457620006e362000688565b5b828206905092915050565b7f4e487b7100000000000000000000000000000000000000000000000000000000600052601160045260246000fd5b60006200072b826200067e565b915062000738836200067e565b9250828210156200074e576200074d620006ef565b5b828203905092915050565b600080fd5b600073ffffffffffffffffffffffffffffffffffffffff82169050919050565b60006200078b826200075e565b9050919050565b6200079d816200077e565b8114620007a957600080fd5b50565b600081519050620007bd8162000792565b92915050565b600060208284031215620007dc57620007db62000759565b5b6000620007ec84828501620007ac565b91505092915050565b62000800816200077e565b82525050565b60006040820190506200081d6000830185620007f5565b6200082c6020830184620007f5565b9392505050565b6200083e816200067e565b82525050565b60006020820190506200085b600083018462000833565b92915050565b7f4e487b7100000000000000000000000000000000000000000000000000000000600052602260045260246000fd5b60006002820490506001821680620008a957607f821691505b602082108103620008bf57620008be62000861565b5b50919050565b61577280620008d56000396000f3fe6080604052600436106102295760003560e01c80635342acb411610123578063a457c2d7116100ab578063d543dbeb1161006f578063d543dbeb1461083c578063dd46706414610865578063dd62ed3e1461088e578063ea2f0b37146108cb578063f2fde38b146108f457610230565b8063a457c2d714610757578063a69df4b514610794578063a9059cbb146107ab578063b6c52324146107e8578063c49b9a801461081357610230565b80637d1db4a5116100f25780637d1db4a51461067057806388f820201461069b5780638da5cb5b146106d85780638ee88c531461070357806395d89b411461072c57610230565b80635342acb4146105b45780636bc87c3a146105f157806370a082311461061c578063715018a61461065957610230565b8063313ce567116101b1578063437823ec11610175578063437823ec146104cf5780634549b039146104f857806349bd5a5e146105355780634a74bb021461056057806352390c021461058b57610230565b8063313ce567146103ea5780633685d41914610415578063395093511461043e5780633b124fe71461047b5780633bd5d173146104a657610230565b80631694505e116101f85780631694505e146102f157806318160ddd1461031c5780631bd609001461034757806323b872dd146103705780632d838119146103ad57610230565b8063061c82d01461023557806306fdde031461025e578063095ea7b31461028957806313114a9d146102c657610230565b3661023057005b600080fd5b34801561024157600080fd5b5061025c6004803603810190610257919061450d565b61091d565b005b34801561026a57600080fd5b506102736109bc565b60405161028091906145d3565b60405180910390f35b34801561029557600080fd5b506102b060048036038101906102ab9190614653565b610a4e565b6040516102bd91906146ae565b60405180910390f35b3480156102d257600080fd5b506102db610a6c565b6040516102e891906146d8565b60405180910390f35b3480156102fd57600080fd5b50610306610a76565b6040516103139190614752565b60405180910390f35b34801561032857600080fd5b50610331610a9c565b60405161033e91906146d8565b60405180910390f35b34801561035357600080fd5b5061036e6004803603810190610369919061476d565b610aa6565b005b34801561037c57600080fd5b506103976004803603810190610392919061479a565b610d1f565b6040516103a491906146ae565b60405180910390f35b3480156103b957600080fd5b506103d460048036038101906103cf919061450d565b610df8565b6040516103e191906146d8565b60405180910390f35b3480156103f657600080fd5b506103ff610e66565b60405161040c9190614809565b60405180910390f35b34801561042157600080fd5b5061043c6004803603810190610437919061476d565b610e7d565b005b34801561044a57600080fd5b5061046560048036038101906104609190614653565b6111cb565b60405161047291906146ae565b60405180910390f35b34801561048757600080fd5b5061049061127e565b60405161049d91906146d8565b60405180910390f35b3480156104b257600080fd5b506104cd60048036038101906104c8919061450d565b611284565b005b3480156104db57600080fd5b506104f660048036038101906104f1919061476d565b6113ff565b005b34801561050457600080fd5b5061051f600480360381019061051a9190614850565b6114ef565b60405161052c91906146d8565b60405180910390f35b34801561054157600080fd5b5061054a611573565b604051610557919061489f565b60405180910390f35b34801561056c57600080fd5b50610575611599565b60405161058291906146ae565b60405180910390f35b34801561059757600080fd5b506105b260048036038101906105ad919061476d565b6115ac565b005b3480156105c057600080fd5b506105db60048036038101906105d6919061476d565b611860565b6040516105e891906146ae565b60405180910390f35b3480156105fd57600080fd5b506106066118b6565b60405161061391906146d8565b60405180910390f35b34801561062857600080fd5b50610643600480360381019061063e919061476d565b6118bc565b60405161065091906146d8565b60405180910390f35b34801561066557600080fd5b5061066e6119a7565b005b34801561067c57600080fd5b50610685611afa565b60405161069291906146d8565b60405180910390f35b3480156106a757600080fd5b506106c260048036038101906106bd919061476d565b611b00565b6040516106cf91906146ae565b60405180910390f35b3480156106e457600080fd5b506106ed611b56565b6040516106fa919061489f565b60405180910390f35b34801561070f57600080fd5b5061072a6004803603810190610725919061450d565b611b7f565b005b34801561073857600080fd5b50610741611c1e565b60405161074e91906145d3565b60405180910390f35b34801561076357600080fd5b5061077e60048036038101906107799190614653565b611cb0565b60405161078b91906146ae565b60405180910390f35b3480156107a057600080fd5b506107a9611d7d565b005b3480156107b757600080fd5b506107d260048036038101906107cd9190614653565b611f51565b6040516107df91906146ae565b60405180910390f35b3480156107f457600080fd5b506107fd611f6f565b60405161080a91906146d8565b60405180910390f35b34801561081f57600080fd5b5061083a600480360381019061083591906148ba565b611f79565b005b34801561084857600080fd5b50610863600480360381019061085e919061450d565b612062565b005b34801561087157600080fd5b5061088c6004803603810190610887919061450d565b612128565b005b34801561089a57600080fd5b506108b560048036038101906108b091906148e7565b6122ef565b6040516108c291906146d8565b60405180910390f35b3480156108d757600080fd5b506108f260048036038101906108ed919061476d565b612376565b005b34801561090057600080fd5b5061091b6004803603810190610916919061476d565b612466565b005b610925612627565b73ffffffffffffffffffffffffffffffffffffffff1660008054906101000a900473ffffffffffffffffffffffffffffffffffffffff1673ffffffffffffffffffffffffffffffffffffffff16146109b2576040517f08c379a00000000000000000000000000000000000000000000000000000000081526004016109a990614973565b60405180910390fd5b80600f8190555050565b6060600c80546109cb906149c2565b80601f01602080910402602001604051908101604052809291908181526020018280546109f7906149c2565b8015610a445780601f10610a1957610100808354040283529160200191610a44565b820191906000526020600020905b815481529060010190602001808311610a2757829003601f168201915b5050505050905090565b6000610a62610a5b612627565b848461262f565b6001905092915050565b6000600b54905090565b601360009054906101000a900473ffffffffffffffffffffffffffffffffffffffff1681565b6000600954905090565b610aae612627565b73ffffffffffffffffffffffffffffffffffffffff1660008054906101000a900473ffffffffffffffffffffffffffffffffffffffff1673ffffffffffffffffffffffffffffffffffffffff1614610b3b576040517f08c379a0000000000000000000000000000000000000000000000000000000008152600401610b3290614973565b60405180910390fd5b60008190508073ffffffffffffffffffffffffffffffffffffffff1663c45a01556040518163ffffffff1660e01b8152600401602060405180830381865afa158015610b8b573d6000803e3d6000fd5b505050506040513d601f19601f82011682018060405250810190610baf9190614a08565b73ffffffffffffffffffffffffffffffffffffffff1663c9c65396308373ffffffffffffffffffffffffffffffffffffffff1663ad5c46486040518163ffffffff1660e01b8152600401602060405180830381865afa158015610c16573d6000803e3d6000fd5b505050506040513d601f19601f82011682018060405250810190610c3a9190614a08565b6040518363ffffffff1660e01b8152600401610c57929190614a35565b6020604051808303816000875af1158015610c76573d6000803e3d6000fd5b505050506040513d601f19601f82011682018060405250810190610c9a9190614a08565b601460006101000a81548173ffffffffffffffffffffffffffffffffffffffff021916908373ffffffffffffffffffffffffffffffffffffffff16021790555080601360006101000a81548173ffffffffffffffffffffffffffffffffffffffff021916908373ffffffffffffffffffffffffffffffffffffffff1602179055505050565b6000610d2c8484846127f8565b610ded84610d38612627565b610de8856040518060600160405280602881526020016156f060289139600560008b73ffffffffffffffffffffffffffffffffffffffff1673ffffffffffffffffffffffffffffffffffffffff1681526020019081526020016000206000610d9e612627565b73ffffffffffffffffffffffffffffffffffffffff1673ffffffffffffffffffffffffffffffffffffffff16815260200190815260200160002054612b639092919063ffffffff16565b61262f565b600190509392505050565b6000600a54821115610e3f576040517f08c379a0000000000000000000000000000000000000000000000000000000008152600401610e3690614ad0565b60405180910390fd5b6000610e49612bc7565b9050610e5e8184612bf290919063ffffffff16565b915050919050565b6000600e60009054906101000a900460ff16905090565b610e85612627565b73ffffffffffffffffffffffffffffffffffffffff1660008054906101000a900473ffffffffffffffffffffffffffffffffffffffff1673ffffffffffffffffffffffffffffffffffffffff1614610f12576040517f08c379a0000000000000000000000000000000000000000000000000000000008152600401610f0990614973565b60405180910390fd5b600760008273ffffffffffffffffffffffffffffffffffffffff1673ffffffffffffffffffffffffffffffffffffffff16815260200190815260200160002060009054906101000a900460ff16610f9e576040517f08c379a0000000000000000000000000000000000000000000000000000000008152600401610f9590614b3c565b60405180910390fd5b60005b6008805490508110156111c7578173ffffffffffffffffffffffffffffffffffffffff1660088281548110610fd957610fd8614b5c565b5b9060005260206000200160009054906101000a900473ffffffffffffffffffffffffffffffffffffffff1673ffffffffffffffffffffffffffffffffffffffff16036111b457600860016008805490506110339190614bba565b8154811061104457611043614b5c565b5b9060005260206000200160009054906101000a900473ffffffffffffffffffffffffffffffffffffffff166008828154811061108357611082614b5c565b5b9060005260206000200160006101000a81548173ffffffffffffffffffffffffffffffffffffffff021916908373ffffffffffffffffffffffffffffffffffffffff1602179055506000600460008473ffffffffffffffffffffffffffffffffffffffff1673ffffffffffffffffffffffffffffffffffffffff168152602001908152602001600020819055506000600760008473ffffffffffffffffffffffffffffffffffffffff1673ffffffffffffffffffffffffffffffffffffffff16815260200190815260200160002060006101000a81548160ff021916908315150217905550600880548061117a57611179614bee565b5b6001900381819060005260206000200160006101000a81549073ffffffffffffffffffffffffffffffffffffffff021916905590556111c7565b80806111bf90614c1d565b915050610fa1565b5050565b60006112746111d8612627565b8461126f85600560006111e9612627565b73ffffffffffffffffffffffffffffffffffffffff1673ffffffffffffffffffffffffffffffffffffffff16815260200190815260200160002060008973ffffffffffffffffffffffffffffffffffffffff1673ffffffffffffffffffffffffffffffffffffffff16815260200190815260200160002054612c3c90919063ffffffff16565b61262f565b6001905092915050565b600f5481565b600061128e612627565b9050600760008273ffffffffffffffffffffffffffffffffffffffff1673ffffffffffffffffffffffffffffffffffffffff16815260200190815260200160002060009054906101000a900460ff161561131d576040517f08c379a000000000000000000000000000000000000000000000000000000000815260040161131490614cd7565b60405180910390fd5b600061132883612c9a565b5050505050905061138181600360008573ffffffffffffffffffffffffffffffffffffffff1673ffffffffffffffffffffffffffffffffffffffff16815260200190815260200160002054612cf690919063ffffffff16565b600360008473ffffffffffffffffffffffffffffffffffffffff1673ffffffffffffffffffffffffffffffffffffffff168152602001908152602001600020819055506113d981600a54612cf690919063ffffffff16565b600a819055506113f483600b54612c3c90919063ffffffff16565b600b81905550505050565b611407612627565b73ffffffffffffffffffffffffffffffffffffffff1660008054906101000a900473ffffffffffffffffffffffffffffffffffffffff1673ffffffffffffffffffffffffffffffffffffffff1614611494576040517f08c379a000000000000000000000000000000000000000000000000000000000815260040161148b90614973565b60405180910390fd5b6001600660008373ffffffffffffffffffffffffffffffffffffffff1673ffffffffffffffffffffffffffffffffffffffff16815260200190815260200160002060006101000a81548160ff02191690831515021790555050565b6000600954831115611536576040517f08c379a000000000000000000000000000000000000000000000000000000000815260040161152d90614d43565b60405180910390fd5b8161155657600061154684612c9a565b505050505090508091505061156d565b600061156184612c9a565b50505050915050809150505b92915050565b601460009054906101000a900473ffffffffffffffffffffffffffffffffffffffff1681565b601460159054906101000a900460ff1681565b6115b4612627565b73ffffffffffffffffffffffffffffffffffffffff1660008054906101000a900473ffffffffffffffffffffffffffffffffffffffff1673ffffffffffffffffffffffffffffffffffffffff1614611641576040517f08c379a000000000000000000000000000000000000000000000000000000000815260040161163890614973565b60405180910390fd5b600760008273ffffffffffffffffffffffffffffffffffffffff1673ffffffffffffffffffffffffffffffffffffffff16815260200190815260200160002060009054906101000a900460ff16156116ce576040517f08c379a00000000000000000000000000000000000000000000000000000000081526004016116c590614b3c565b60405180910390fd5b6000600360008373ffffffffffffffffffffffffffffffffffffffff1673ffffffffffffffffffffffffffffffffffffffff1681526020019081526020016000205411156117a25761175e600360008373ffffffffffffffffffffffffffffffffffffffff1673ffffffffffffffffffffffffffffffffffffffff16815260200190815260200160002054610df8565b600460008373ffffffffffffffffffffffffffffffffffffffff1673ffffffffffffffffffffffffffffffffffffffff168152602001908152602001600020819055505b6001600760008373ffffffffffffffffffffffffffffffffffffffff1673ffffffffffffffffffffffffffffffffffffffff16815260200190815260200160002060006101000a81548160ff0219169083151502179055506008819080600181540180825580915050600190039060005260206000200160009091909190916101000a81548173ffffffffffffffffffffffffffffffffffffffff021916908373ffffffffffffffffffffffffffffffffffffffff16021790555050565b6000600660008373ffffffffffffffffffffffffffffffffffffffff1673ffffffffffffffffffffffffffffffffffffffff16815260200190815260200160002060009054906101000a900460ff169050919050565b60115481565b6000600760008373ffffffffffffffffffffffffffffffffffffffff1673ffffffffffffffffffffffffffffffffffffffff16815260200190815260200160002060009054906101000a900460ff161561195757600460008373ffffffffffffffffffffffffffffffffffffffff1673ffffffffffffffffffffffffffffffffffffffff1681526020019081526020016000205490506119a2565b61199f600360008473ffffffffffffffffffffffffffffffffffffffff1673ffffffffffffffffffffffffffffffffffffffff16815260200190815260200160002054610df8565b90505b919050565b6119af612627565b73ffffffffffffffffffffffffffffffffffffffff1660008054906101000a900473ffffffffffffffffffffffffffffffffffffffff1673ffffffffffffffffffffffffffffffffffffffff1614611a3c576040517f08c379a0000000000000000000000000000000000000000000000000000000008152600401611a3390614973565b60405180910390fd5b600073ffffffffffffffffffffffffffffffffffffffff1660008054906101000a900473ffffffffffffffffffffffffffffffffffffffff1673ffffffffffffffffffffffffffffffffffffffff167f8be0079c531659141344cd1fd0a4f28419497f9722a3daafe3b4186f6b6457e060405160405180910390a360008060006101000a81548173ffffffffffffffffffffffffffffffffffffffff021916908373ffffffffffffffffffffffffffffffffffffffff160217905550565b60155481565b6000600760008373ffffffffffffffffffffffffffffffffffffffff1673ffffffffffffffffffffffffffffffffffffffff16815260200190815260200160002060009054906101000a900460ff169050919050565b60008060009054906101000a900473ffffffffffffffffffffffffffffffffffffffff16905090565b611b87612627565b73ffffffffffffffffffffffffffffffffffffffff1660008054906101000a900473ffffffffffffffffffffffffffffffffffffffff1673ffffffffffffffffffffffffffffffffffffffff1614611c14576040517f08c379a0000000000000000000000000000000000000000000000000000000008152600401611c0b90614973565b60405180910390fd5b8060118190555050565b6060600d8054611c2d906149c2565b80601f0160208091040260200160405190810160405280929190818152602001828054611c59906149c2565b8015611ca65780601f10611c7b57610100808354040283529160200191611ca6565b820191906000526020600020905b815481529060010190602001808311611c8957829003601f168201915b5050505050905090565b6000611d73611cbd612627565b84611d6e856040518060600160405280602581526020016157186025913960056000611ce7612627565b73ffffffffffffffffffffffffffffffffffffffff1673ffffffffffffffffffffffffffffffffffffffff16815260200190815260200160002060008a73ffffffffffffffffffffffffffffffffffffffff1673ffffffffffffffffffffffffffffffffffffffff16815260200190815260200160002054612b639092919063ffffffff16565b61262f565b6001905092915050565b3373ffffffffffffffffffffffffffffffffffffffff16600160009054906101000a900473ffffffffffffffffffffffffffffffffffffffff1673ffffffffffffffffffffffffffffffffffffffff1614611e0d576040517f08c379a0000000000000000000000000000000000000000000000000000000008152600401611e0490614dd5565b60405180910390fd5b6002544211611e51576040517f08c379a0000000000000000000000000000000000000000000000000000000008152600401611e4890614e41565b60405180910390fd5b600160009054906101000a900473ffffffffffffffffffffffffffffffffffffffff1673ffffffffffffffffffffffffffffffffffffffff1660008054906101000a900473ffffffffffffffffffffffffffffffffffffffff1673ffffffffffffffffffffffffffffffffffffffff167f8be0079c531659141344cd1fd0a4f28419497f9722a3daafe3b4186f6b6457e060405160405180910390a3600160009054906101000a900473ffffffffffffffffffffffffffffffffffffffff166000806101000a81548173ffffffffffffffffffffffffffffffffffffffff021916908373ffffffffffffffffffffffffffffffffffffffff160217905550565b6000611f65611f5e612627565b84846127f8565b6001905092915050565b6000600254905090565b611f81612627565b73ffffffffffffffffffffffffffffffffffffffff1660008054906101000a900473ffffffffffffffffffffffffffffffffffffffff1673ffffffffffffffffffffffffffffffffffffffff161461200e576040517f08c379a000000000000000000000000000000000000000000000000000000000815260040161200590614973565b60405180910390fd5b80601460156101000a81548160ff0219169083151502179055507f53726dfcaf90650aa7eb35524f4d3220f07413c8d6cb404cc8c18bf5591bc1598160405161205791906146ae565b60405180910390a150565b61206a612627565b73ffffffffffffffffffffffffffffffffffffffff1660008054906101000a900473ffffffffffffffffffffffffffffffffffffffff1673ffffffffffffffffffffffffffffffffffffffff16146120f7576040517f08c379a00000000000000000000000000000000000000000000000000000000081526004016120ee90614973565b60405180910390fd5b61211f606461211183600954612d4090919063ffffffff16565b612bf290919063ffffffff16565b60158190555050565b612130612627565b73ffffffffffffffffffffffffffffffffffffffff1660008054906101000a900473ffffffffffffffffffffffffffffffffffffffff1673ffffffffffffffffffffffffffffffffffffffff16146121bd576040517f08c379a00000000000000000000000000000000000000000000000000000000081526004016121b490614973565b60405180910390fd5b60008054906101000a900473ffffffffffffffffffffffffffffffffffffffff16600160006101000a81548173ffffffffffffffffffffffffffffffffffffffff021916908373ffffffffffffffffffffffffffffffffffffffff16021790555060008060006101000a81548173ffffffffffffffffffffffffffffffffffffffff021916908373ffffffffffffffffffffffffffffffffffffffff160217905550804261226b9190614e61565b600281905550600073ffffffffffffffffffffffffffffffffffffffff1660008054906101000a900473ffffffffffffffffffffffffffffffffffffffff1673ffffffffffffffffffffffffffffffffffffffff167f8be0079c531659141344cd1fd0a4f28419497f9722a3daafe3b4186f6b6457e060405160405180910390a350565b6000600560008473ffffffffffffffffffffffffffffffffffffffff1673ffffffffffffffffffffffffffffffffffffffff16815260200190815260200160002060008373ffffffffffffffffffffffffffffffffffffffff1673ffffffffffffffffffffffffffffffffffffffff16815260200190815260200160002054905092915050565b61237e612627565b73ffffffffffffffffffffffffffffffffffffffff1660008054906101000a900473ffffffffffffffffffffffffffffffffffffffff1673ffffffffffffffffffffffffffffffffffffffff161461240b576040517f08c379a000000000000000000000000000000000000000000000000000000000815260040161240290614973565b60405180910390fd5b6000600660008373ffffffffffffffffffffffffffffffffffffffff1673ffffffffffffffffffffffffffffffffffffffff16815260200190815260200160002060006101000a81548160ff02191690831515021790555050565b61246e612627565b73ffffffffffffffffffffffffffffffffffffffff1660008054906101000a900473ffffffffffffffffffffffffffffffffffffffff1673ffffffffffffffffffffffffffffffffffffffff16146124fb576040517f08c379a00000000000000000000000000000000000000000000000000000000081526004016124f290614973565b60405180910390fd5b600073ffffffffffffffffffffffffffffffffffffffff168173ffffffffffffffffffffffffffffffffffffffff160361256a576040517f08c379a000000000000000000000000000000000000000000000000000000000815260040161256190614f29565b60405180910390fd5b8073ffffffffffffffffffffffffffffffffffffffff1660008054906101000a900473ffffffffffffffffffffffffffffffffffffffff1673ffffffffffffffffffffffffffffffffffffffff167f8be0079c531659141344cd1fd0a4f28419497f9722a3daafe3b4186f6b6457e060405160405180910390a3806000806101000a81548173ffffffffffffffffffffffffffffffffffffffff021916908373ffffffffffffffffffffffffffffffffffffffff16021790555050565b600033905090565b600073ffffffffffffffffffffffffffffffffffffffff168373ffffffffffffffffffffffffffffffffffffffff160361269e576040517f08c379a000000000000000000000000000000000000000000000000000000000815260040161269590614fbb565b60405180910390fd5b600073ffffffffffffffffffffffffffffffffffffffff168273ffffffffffffffffffffffffffffffffffffffff160361270d576040517f08c379a00000000000000000000000000000000000000000000000000000000081526004016127049061504d565b60405180910390fd5b80600560008573ffffffffffffffffffffffffffffffffffffffff1673ffffffffffffffffffffffffffffffffffffffff16815260200190815260200160002060008473ffffffffffffffffffffffffffffffffffffffff1673ffffffffffffffffffffffffffffffffffffffff168152602001908152602001600020819055508173ffffffffffffffffffffffffffffffffffffffff168373ffffffffffffffffffffffffffffffffffffffff167f8c5be1e5ebec7d5bd14f71427d1e84f3dd0314c0f7b2291e5b200ac8c7c3b925836040516127eb91906146d8565b60405180910390a3505050565b600073ffffffffffffffffffffffffffffffffffffffff168373ffffffffffffffffffffffffffffffffffffffff1603612867576040517f08c379a000000000000000000000000000000000000000000000000000000000815260040161285e906150df565b60405180910390fd5b600073ffffffffffffffffffffffffffffffffffffffff168273ffffffffffffffffffffffffffffffffffffffff16036128d6576040517f08c379a00000000000000000000000000000000000000000000000000000000081526004016128cd90615171565b60405180910390fd5b60008111612919576040517f08c379a000000000000000000000000000000000000000000000000000000000815260040161291090615203565b60405180910390fd5b612921611b56565b73ffffffffffffffffffffffffffffffffffffffff168373ffffffffffffffffffffffffffffffffffffffff161415801561298f575061295f611b56565b73ffffffffffffffffffffffffffffffffffffffff168273ffffffffffffffffffffffffffffffffffffffff1614155b156129da576015548111156129d9576040517f08c379a00000000000000000000000000000000000000000000000000000000081526004016129d090615295565b60405180910390fd5b5b60006129e5306118bc565b905060155481106129f65760155490505b60006016548210159050808015612a18575060148054906101000a900460ff16155b8015612a725750601460009054906101000a900473ffffffffffffffffffffffffffffffffffffffff1673ffffffffffffffffffffffffffffffffffffffff168573ffffffffffffffffffffffffffffffffffffffff1614155b8015612a8a5750601460159054906101000a900460ff165b15612a9e576016549150612a9d82612dba565b5b600060019050600660008773ffffffffffffffffffffffffffffffffffffffff1673ffffffffffffffffffffffffffffffffffffffff16815260200190815260200160002060009054906101000a900460ff1680612b455750600660008673ffffffffffffffffffffffffffffffffffffffff1673ffffffffffffffffffffffffffffffffffffffff16815260200190815260200160002060009054906101000a900460ff165b15612b4f57600090505b612b5b86868684612e8e565b505050505050565b6000838311158290612bab576040517f08c379a0000000000000000000000000000000000000000000000000000000008152600401612ba291906145d3565b60405180910390fd5b5060008385612bba9190614bba565b9050809150509392505050565b6000806000612bd461319f565b91509150612beb8183612bf290919063ffffffff16565b9250505090565b6000612c3483836040518060400160405280601a81526020017f536166654d6174683a206469766973696f6e206279207a65726f000000000000815250613452565b905092915050565b6000808284612c4b9190614e61565b905083811015612c90576040517f08c379a0000000000000000000000000000000000000000000000000000000008152600401612c8790615301565b60405180910390fd5b8091505092915050565b6000806000806000806000806000612cb18a6134b5565b9250925092506000806000612ccf8d8686612cca612bc7565b61350f565b9250925092508282828888889b509b509b509b509b509b5050505050505091939550919395565b6000612d3883836040518060400160405280601e81526020017f536166654d6174683a207375627472616374696f6e206f766572666c6f770000815250612b63565b905092915050565b6000808303612d525760009050612db4565b60008284612d609190615321565b9050828482612d6f91906153aa565b14612daf576040517f08c379a0000000000000000000000000000000000000000000000000000000008152600401612da69061544d565b60405180910390fd5b809150505b92915050565b60016014806101000a81548160ff0219169083151502179055506000612dea600283612bf290919063ffffffff16565b90506000612e018284612cf690919063ffffffff16565b90506000479050612e1183613598565b6000612e268247612cf690919063ffffffff16565b9050612e3283826137db565b7f17bbfb9a6069321b6ded73bd96327c9e6b7212a5cd51ff219cd61370acafb561848285604051612e659392919061546d565b60405180910390a15050505060006014806101000a81548160ff02191690831515021790555050565b80612e9c57612e9b6138c0565b5b600760008573ffffffffffffffffffffffffffffffffffffffff1673ffffffffffffffffffffffffffffffffffffffff16815260200190815260200160002060009054906101000a900460ff168015612f3f5750600760008473ffffffffffffffffffffffffffffffffffffffff1673ffffffffffffffffffffffffffffffffffffffff16815260200190815260200160002060009054906101000a900460ff16155b15612f5457612f4f8484846138fd565b61318b565b600760008573ffffffffffffffffffffffffffffffffffffffff1673ffffffffffffffffffffffffffffffffffffffff16815260200190815260200160002060009054906101000a900460ff16158015612ff75750600760008473ffffffffffffffffffffffffffffffffffffffff1673ffffffffffffffffffffffffffffffffffffffff16815260200190815260200160002060009054906101000a900460ff165b1561300c57613007848484613b5d565b61318a565b600760008573ffffffffffffffffffffffffffffffffffffffff1673ffffffffffffffffffffffffffffffffffffffff16815260200190815260200160002060009054906101000a900460ff161580156130b05750600760008473ffffffffffffffffffffffffffffffffffffffff1673ffffffffffffffffffffffffffffffffffffffff16815260200190815260200160002060009054906101000a900460ff16155b156130c5576130c0848484613dbd565b613189565b600760008573ffffffffffffffffffffffffffffffffffffffff1673ffffffffffffffffffffffffffffffffffffffff16815260200190815260200160002060009054906101000a900460ff1680156131675750600760008473ffffffffffffffffffffffffffffffffffffffff1673ffffffffffffffffffffffffffffffffffffffff16815260200190815260200160002060009054906101000a900460ff165b1561317c57613177848484613f88565b613188565b613187848484613dbd565b5b5b5b5b806131995761319861427d565b5b50505050565b6000806000600a5490506000600954905060005b600880549050811015613415578260036000600884815481106131d9576131d8614b5c565b5b9060005260206000200160009054906101000a900473ffffffffffffffffffffffffffffffffffffffff1673ffffffffffffffffffffffffffffffffffffffff1673ffffffffffffffffffffffffffffffffffffffff1681526020019081526020016000205411806132c7575081600460006008848154811061325f5761325e614b5c565b5b9060005260206000200160009054906101000a900473ffffffffffffffffffffffffffffffffffffffff1673ffffffffffffffffffffffffffffffffffffffff1673ffffffffffffffffffffffffffffffffffffffff16815260200190815260200160002054115b156132de57600a546009549450945050505061344e565b61336e60036000600884815481106132f9576132f8614b5c565b5b9060005260206000200160009054906101000a900473ffffffffffffffffffffffffffffffffffffffff1673ffffffffffffffffffffffffffffffffffffffff1673ffffffffffffffffffffffffffffffffffffffff1681526020019081526020016000205484612cf690919063ffffffff16565b9250613400600460006008848154811061338b5761338a614b5c565b5b9060005260206000200160009054906101000a900473ffffffffffffffffffffffffffffffffffffffff1673ffffffffffffffffffffffffffffffffffffffff1673ffffffffffffffffffffffffffffffffffffffff1681526020019081526020016000205483612cf690919063ffffffff16565b9150808061340d90614c1d565b9150506131b3565b5061342d600954600a54612bf290919063ffffffff16565b82101561344557600a5460095493509350505061344e565b81819350935050505b9091565b60008083118290613499576040517f08c379a000000000000000000000000000000000000000000000000000000000815260040161349091906145d3565b60405180910390fd5b50600083856134a891906153aa565b9050809150509392505050565b6000806000806134c485614291565b905060006134d1866142c2565b905060006134fa826134ec858a612cf690919063ffffffff16565b612cf690919063ffffffff16565b90508083839550955095505050509193909250565b6000806000806135288589612d4090919063ffffffff16565b9050600061353f8689612d4090919063ffffffff16565b905060006135568789612d4090919063ffffffff16565b9050600061357f826135718587612cf690919063ffffffff16565b612cf690919063ffffffff16565b9050838184965096509650505050509450945094915050565b6000600267ffffffffffffffff8111156135b5576135b46154a4565b5b6040519080825280602002602001820160405280156135e35781602001602082028036833780820191505090505b50905030816000815181106135fb576135fa614b5c565b5b602002602001019073ffffffffffffffffffffffffffffffffffffffff16908173ffffffffffffffffffffffffffffffffffffffff1681525050601360009054906101000a900473ffffffffffffffffffffffffffffffffffffffff1673ffffffffffffffffffffffffffffffffffffffff1663ad5c46486040518163ffffffff1660e01b8152600401602060405180830381865afa1580156136a2573d6000803e3d6000fd5b505050506040513d601f19601f820116820180604052508101906136c69190614a08565b816001815181106136da576136d9614b5c565b5b602002602001019073ffffffffffffffffffffffffffffffffffffffff16908173ffffffffffffffffffffffffffffffffffffffff168152505061374130601360009054906101000a900473ffffffffffffffffffffffffffffffffffffffff168461262f565b601360009054906101000a900473ffffffffffffffffffffffffffffffffffffffff1673ffffffffffffffffffffffffffffffffffffffff1663791ac9478360008430426040518663ffffffff1660e01b81526004016137a59594939291906155cc565b600060405180830381600087803b1580156137bf57600080fd5b505af11580156137d3573d6000803e3d6000fd5b505050505050565b61380830601360009054906101000a900473ffffffffffffffffffffffffffffffffffffffff168461262f565b601360009054906101000a900473ffffffffffffffffffffffffffffffffffffffff1673ffffffffffffffffffffffffffffffffffffffff1663f305d719823085600080613854611b56565b426040518863ffffffff1660e01b815260040161387696959493929190615626565b60606040518083038185885af1158015613894573d6000803e3d6000fd5b50505050506040513d601f19601f820116820180604052508101906138b9919061569c565b5050505050565b6000600f541480156138d457506000601154145b6138fb57600f546010819055506011546012819055506000600f8190555060006011819055505b565b60008060008060008061390f87612c9a565b95509550955095509550955061396d87600460008c73ffffffffffffffffffffffffffffffffffffffff1673ffffffffffffffffffffffffffffffffffffffff16815260200190815260200160002054612cf690919063ffffffff16565b600460008b73ffffffffffffffffffffffffffffffffffffffff1673ffffffffffffffffffffffffffffffffffffffff16815260200190815260200160002081905550613a0286600360008c73ffffffffffffffffffffffffffffffffffffffff1673ffffffffffffffffffffffffffffffffffffffff16815260200190815260200160002054612cf690919063ffffffff16565b600360008b73ffffffffffffffffffffffffffffffffffffffff1673ffffffffffffffffffffffffffffffffffffffff16815260200190815260200160002081905550613a9785600360008b73ffffffffffffffffffffffffffffffffffffffff1673ffffffffffffffffffffffffffffffffffffffff16815260200190815260200160002054612c3c90919063ffffffff16565b600360008a73ffffffffffffffffffffffffffffffffffffffff1673ffffffffffffffffffffffffffffffffffffffff16815260200190815260200160002081905550613ae3816142f3565b613aed8483614498565b8773ffffffffffffffffffffffffffffffffffffffff168973ffffffffffffffffffffffffffffffffffffffff167fddf252ad1be2c89b69c2b068fc378daa952ba7f163c4a11628f55a4df523b3ef85604051613b4a91906146d8565b60405180910390a3505050505050505050565b600080600080600080613b6f87612c9a565b955095509550955095509550613bcd86600360008c73ffffffffffffffffffffffffffffffffffffffff1673ffffffffffffffffffffffffffffffffffffffff16815260200190815260200160002054612cf690919063ffffffff16565b600360008b73ffffffffffffffffffffffffffffffffffffffff1673ffffffffffffffffffffffffffffffffffffffff16815260200190815260200160002081905550613c6283600460008b73ffffffffffffffffffffffffffffffffffffffff1673ffffffffffffffffffffffffffffffffffffffff16815260200190815260200160002054612c3c90919063ffffffff16565b600460008a73ffffffffffffffffffffffffffffffffffffffff1673ffffffffffffffffffffffffffffffffffffffff16815260200190815260200160002081905550613cf785600360008b73ffffffffffffffffffffffffffffffffffffffff1673ffffffffffffffffffffffffffffffffffffffff16815260200190815260200160002054612c3c90919063ffffffff16565b600360008a73ffffffffffffffffffffffffffffffffffffffff1673ffffffffffffffffffffffffffffffffffffffff16815260200190815260200160002081905550613d43816142f3565b613d4d8483614498565b8773ffffffffffffffffffffffffffffffffffffffff168973ffffffffffffffffffffffffffffffffffffffff167fddf252ad1be2c89b69c2b068fc378daa952ba7f163c4a11628f55a4df523b3ef85604051613daa91906146d8565b60405180910390a3505050505050505050565b600080600080600080613dcf87612c9a565b955095509550955095509550613e2d86600360008c73ffffffffffffffffffffffffffffffffffffffff1673ffffffffffffffffffffffffffffffffffffffff16815260200190815260200160002054612cf690919063ffffffff16565b600360008b73ffffffffffffffffffffffffffffffffffffffff1673ffffffffffffffffffffffffffffffffffffffff16815260200190815260200160002081905550613ec285600360008b73ffffffffffffffffffffffffffffffffffffffff1673ffffffffffffffffffffffffffffffffffffffff16815260200190815260200160002054612c3c90919063ffffffff16565b600360008a73ffffffffffffffffffffffffffffffffffffffff1673ffffffffffffffffffffffffffffffffffffffff16815260200190815260200160002081905550613f0e816142f3565b613f188483614498565b8773ffffffffffffffffffffffffffffffffffffffff168973ffffffffffffffffffffffffffffffffffffffff167fddf252ad1be2c89b69c2b068fc378daa952ba7f163c4a11628f55a4df523b3ef85604051613f7591906146d8565b60405180910390a3505050505050505050565b600080600080600080613f9a87612c9a565b955095509550955095509550613ff887600460008c73ffffffffffffffffffffffffffffffffffffffff1673ffffffffffffffffffffffffffffffffffffffff16815260200190815260200160002054612cf690919063ffffffff16565b600460008b73ffffffffffffffffffffffffffffffffffffffff1673ffffffffffffffffffffffffffffffffffffffff1681526020019081526020016000208190555061408d86600360008c73ffffffffffffffffffffffffffffffffffffffff1673ffffffffffffffffffffffffffffffffffffffff16815260200190815260200160002054612cf690919063ffffffff16565b600360008b73ffffffffffffffffffffffffffffffffffffffff1673ffffffffffffffffffffffffffffffffffffffff1681526020019081526020016000208190555061412283600460008b73ffffffffffffffffffffffffffffffffffffffff1673ffffffffffffffffffffffffffffffffffffffff16815260200190815260200160002054612c3c90919063ffffffff16565b600460008a73ffffffffffffffffffffffffffffffffffffffff1673ffffffffffffffffffffffffffffffffffffffff168152602001908152602001600020819055506141b785600360008b73ffffffffffffffffffffffffffffffffffffffff1673ffffffffffffffffffffffffffffffffffffffff16815260200190815260200160002054612c3c90919063ffffffff16565b600360008a73ffffffffffffffffffffffffffffffffffffffff1673ffffffffffffffffffffffffffffffffffffffff16815260200190815260200160002081905550614203816142f3565b61420d8483614498565b8773ffffffffffffffffffffffffffffffffffffffff168973ffffffffffffffffffffffffffffffffffffffff167fddf252ad1be2c89b69c2b068fc378daa952ba7f163c4a11628f55a4df523b3ef8560405161426a91906146d8565b60405180910390a3505050505050505050565b601054600f81905550601254601181905550565b60006142bb60646142ad600f5485612d4090919063ffffffff16565b612bf290919063ffffffff16565b9050919050565b60006142ec60646142de60115485612d4090919063ffffffff16565b612bf290919063ffffffff16565b9050919050565b60006142fd612bc7565b905060006143148284612d4090919063ffffffff16565b905061436881600360003073ffffffffffffffffffffffffffffffffffffffff1673ffffffffffffffffffffffffffffffffffffffff16815260200190815260200160002054612c3c90919063ffffffff16565b600360003073ffffffffffffffffffffffffffffffffffffffff1673ffffffffffffffffffffffffffffffffffffffff16815260200190815260200160002081905550600760003073ffffffffffffffffffffffffffffffffffffffff1673ffffffffffffffffffffffffffffffffffffffff16815260200190815260200160002060009054906101000a900460ff16156144935761444f83600460003073ffffffffffffffffffffffffffffffffffffffff1673ffffffffffffffffffffffffffffffffffffffff16815260200190815260200160002054612c3c90919063ffffffff16565b600460003073ffffffffffffffffffffffffffffffffffffffff1673ffffffffffffffffffffffffffffffffffffffff168152602001908152602001600020819055505b505050565b6144ad82600a54612cf690919063ffffffff16565b600a819055506144c881600b54612c3c90919063ffffffff16565b600b819055505050565b600080fd5b6000819050919050565b6144ea816144d7565b81146144f557600080fd5b50565b600081359050614507816144e1565b92915050565b600060208284031215614523576145226144d2565b5b6000614531848285016144f8565b91505092915050565b600081519050919050565b600082825260208201905092915050565b60005b83811015614574578082015181840152602081019050614559565b83811115614583576000848401525b50505050565b6000601f19601f8301169050919050565b60006145a58261453a565b6145af8185614545565b93506145bf818560208601614556565b6145c881614589565b840191505092915050565b600060208201905081810360008301526145ed818461459a565b905092915050565b600073ffffffffffffffffffffffffffffffffffffffff82169050919050565b6000614620826145f5565b9050919050565b61463081614615565b811461463b57600080fd5b50565b60008135905061464d81614627565b92915050565b6000806040838503121561466a576146696144d2565b5b60006146788582860161463e565b9250506020614689858286016144f8565b9150509250929050565b60008115159050919050565b6146a881614693565b82525050565b60006020820190506146c3600083018461469f565b92915050565b6146d2816144d7565b82525050565b60006020820190506146ed60008301846146c9565b92915050565b6000819050919050565b600061471861471361470e846145f5565b6146f3565b6145f5565b9050919050565b600061472a826146fd565b9050919050565b600061473c8261471f565b9050919050565b61474c81614731565b82525050565b60006020820190506147676000830184614743565b92915050565b600060208284031215614783576147826144d2565b5b60006147918482850161463e565b91505092915050565b6000806000606084860312156147b3576147b26144d2565b5b60006147c18682870161463e565b93505060206147d28682870161463e565b92505060406147e3868287016144f8565b9150509250925092565b600060ff82169050919050565b614803816147ed565b82525050565b600060208201905061481e60008301846147fa565b92915050565b61482d81614693565b811461483857600080fd5b50565b60008135905061484a81614824565b92915050565b60008060408385031215614867576148666144d2565b5b6000614875858286016144f8565b92505060206148868582860161483b565b9150509250929050565b61489981614615565b82525050565b60006020820190506148b46000830184614890565b92915050565b6000602082840312156148d0576148cf6144d2565b5b60006148de8482850161483b565b91505092915050565b600080604083850312156148fe576148fd6144d2565b5b600061490c8582860161463e565b925050602061491d8582860161463e565b9150509250929050565b7f4f776e61626c653a2063616c6c6572206973206e6f7420746865206f776e6572600082015250565b600061495d602083614545565b915061496882614927565b602082019050919050565b6000602082019050818103600083015261498c81614950565b9050919050565b7f4e487b7100000000000000000000000000000000000000000000000000000000600052602260045260246000fd5b600060028204905060018216806149da57607f821691505b6020821081036149ed576149ec614993565b5b50919050565b600081519050614a0281614627565b92915050565b600060208284031215614a1e57614a1d6144d2565b5b6000614a2c848285016149f3565b91505092915050565b6000604082019050614a4a6000830185614890565b614a576020830184614890565b9392505050565b7f416d6f756e74206d757374206265206c657373207468616e20746f74616c207260008201527f65666c656374696f6e7300000000000000000000000000000000000000000000602082015250565b6000614aba602a83614545565b9150614ac582614a5e565b604082019050919050565b60006020820190508181036000830152614ae981614aad565b9050919050565b7f4163636f756e7420697320616c7265616479206578636c756465640000000000600082015250565b6000614b26601b83614545565b9150614b3182614af0565b602082019050919050565b60006020820190508181036000830152614b5581614b19565b9050919050565b7f4e487b7100000000000000000000000000000000000000000000000000000000600052603260045260246000fd5b7f4e487b7100000000000000000000000000000000000000000000000000000000600052601160045260246000fd5b6000614bc5826144d7565b9150614bd0836144d7565b925082821015614be357614be2614b8b565b5b828203905092915050565b7f4e487b7100000000000000000000000000000000000000000000000000000000600052603160045260246000fd5b6000614c28826144d7565b91507fffffffffffffffffffffffffffffffffffffffffffffffffffffffffffffffff8203614c5a57614c59614b8b565b5b600182019050919050565b7f4578636c75646564206164647265737365732063616e6e6f742063616c6c207460008201527f6869732066756e6374696f6e0000000000000000000000000000000000000000602082015250565b6000614cc1602c83614545565b9150614ccc82614c65565b604082019050919050565b60006020820190508181036000830152614cf081614cb4565b9050919050565b7f416d6f756e74206d757374206265206c657373207468616e20737570706c7900600082015250565b6000614d2d601f83614545565b9150614d3882614cf7565b602082019050919050565b60006020820190508181036000830152614d5c81614d20565b9050919050565b7f596f7520646f6e27742068617665207065726d697373696f6e20746f20756e6c60008201527f6f636b0000000000000000000000000000000000000000000000000000000000602082015250565b6000614dbf602383614545565b9150614dca82614d63565b604082019050919050565b60006020820190508181036000830152614dee81614db2565b9050919050565b7f436f6e7472616374206973206c6f636b656420756e74696c2037206461797300600082015250565b6000614e2b601f83614545565b9150614e3682614df5565b602082019050919050565b60006020820190508181036000830152614e5a81614e1e565b9050919050565b6000614e6c826144d7565b9150614e77836144d7565b9250827fffffffffffffffffffffffffffffffffffffffffffffffffffffffffffffffff03821115614eac57614eab614b8b565b5b828201905092915050565b7f4f776e61626c653a206e6577206f776e657220697320746865207a65726f206160008201527f6464726573730000000000000000000000000000000000000000000000000000602082015250565b6000614f13602683614545565b9150614f1e82614eb7565b604082019050919050565b60006020820190508181036000830152614f4281614f06565b9050919050565b7f45524332303a20617070726f76652066726f6d20746865207a65726f2061646460008201527f7265737300000000000000000000000000000000000000000000000000000000602082015250565b6000614fa5602483614545565b9150614fb082614f49565b604082019050919050565b60006020820190508181036000830152614fd481614f98565b9050919050565b7f45524332303a20617070726f766520746f20746865207a65726f20616464726560008201527f7373000000000000000000000000000000000000000000000000000000000000602082015250565b6000615037602283614545565b915061504282614fdb565b604082019050919050565b600060208201905081810360008301526150668161502a565b9050919050565b7f45524332303a207472616e736665722066726f6d20746865207a65726f20616460008201527f6472657373000000000000000000000000000000000000000000000000000000602082015250565b60006150c9602583614545565b91506150d48261506d565b604082019050919050565b600060208201905081810360008301526150f8816150bc565b9050919050565b7f45524332303a207472616e7366657220746f20746865207a65726f206164647260008201527f6573730000000000000000000000000000000000000000000000000000000000602082015250565b600061515b602383614545565b9150615166826150ff565b604082019050919050565b6000602082019050818103600083015261518a8161514e565b9050919050565b7f5472616e7366657220616d6f756e74206d75737420626520677265617465722060008201527f7468616e207a65726f0000000000000000000000000000000000000000000000602082015250565b60006151ed602983614545565b91506151f882615191565b604082019050919050565b6000602082019050818103600083015261521c816151e0565b9050919050565b7f5472616e7366657220616d6f756e74206578636565647320746865206d61785460008201527f78416d6f756e742e000000000000000000000000000000000000000000000000602082015250565b600061527f602883614545565b915061528a82615223565b604082019050919050565b600060208201905081810360008301526152ae81615272565b9050919050565b7f536166654d6174683a206164646974696f6e206f766572666c6f770000000000600082015250565b60006152eb601b83614545565b91506152f6826152b5565b602082019050919050565b6000602082019050818103600083015261531a816152de565b9050919050565b600061532c826144d7565b9150615337836144d7565b9250817fffffffffffffffffffffffffffffffffffffffffffffffffffffffffffffffff04831182151516156153705761536f614b8b565b5b828202905092915050565b7f4e487b7100000000000000000000000000000000000000000000000000000000600052601260045260246000fd5b60006153b5826144d7565b91506153c0836144d7565b9250826153d0576153cf61537b565b5b828204905092915050565b7f536166654d6174683a206d756c7469706c69636174696f6e206f766572666c6f60008201527f7700000000000000000000000000000000000000000000000000000000000000602082015250565b6000615437602183614545565b9150615442826153db565b604082019050919050565b600060208201905081810360008301526154668161542a565b9050919050565b600060608201905061548260008301866146c9565b61548f60208301856146c9565b61549c60408301846146c9565b949350505050565b7f4e487b7100000000000000000000000000000000000000000000000000000000600052604160045260246000fd5b6000819050919050565b60006154f86154f36154ee846154d3565b6146f3565b6144d7565b9050919050565b615508816154dd565b82525050565b600081519050919050565b600082825260208201905092915050565b6000819050602082019050919050565b61554381614615565b82525050565b6000615555838361553a565b60208301905092915050565b6000602082019050919050565b60006155798261550e565b6155838185615519565b935061558e8361552a565b8060005b838110156155bf5781516155a68882615549565b97506155b183615561565b925050600181019050615592565b5085935050505092915050565b600060a0820190506155e160008301886146c9565b6155ee60208301876154ff565b8181036040830152615600818661556e565b905061560f6060830185614890565b61561c60808301846146c9565b9695505050505050565b600060c08201905061563b6000830189614890565b61564860208301886146c9565b61565560408301876154ff565b61566260608301866154ff565b61566f6080830185614890565b61567c60a08301846146c9565b979650505050505050565b600081519050615696816144e1565b92915050565b6000806000606084860312156156b5576156b46144d2565b5b60006156c386828701615687565b93505060206156d486828701615687565b92505060406156e586828701615687565b915050925092509256fe45524332303a207472616e7366657220616d6f756e74206578636565647320616c6c6f77616e636545524332303a2064656372656173656420616c6c6f77616e63652062656c6f77207a65726fa264697066735822122083c8ae9f30c9b18c5e0a2da396f5098430cab4d6285b5368b621fb1de301717364736f6c634300080d0033",
  "immutableReferences": {},
  "source": "/*\n   #BEE\n   #LIQ+#RFI+#SHIB+#DOGE = #BEE\n   #SAFEMOON features:\n   3% fee auto add to the liquidity pool to locked forever when selling\n   2% fee auto distribute to all holders\n   I created a black hole so #Bee token will deflate itself in supply with every transaction\n   50% Supply is burned at start.\n */\n// SPDX-License-Identifier: Unlicensed\npragma solidity >=0.6.12;\n\nimport \"./SafeMath.sol\";\nimport \"./IERC20SM.sol\";\n\n/**\n * @dev Wrappers over Solidity's arithmetic operations with added overflow\n * checks.\n *\n * Arithmetic operations in Solidity wrap on overflow. This can easily result\n * in bugs, because programmers usually assume that an overflow raises an\n * error, which is the standard behavior in high level programming languages.\n * `SafeMath` restores this intuition by reverting the transaction when an\n * operation overflows.\n *\n * Using this library instead of the unchecked operations eliminates an entire\n * class of bugs, so it's recommended to use it always.\n */\n\nabstract contract ContextSM {\n    function _msgSender() internal view virtual returns (address payable) {\n        return payable(msg.sender);\n    }\n\n    function _msgData() internal view virtual returns (bytes memory) {\n        this; // silence state mutability warning without generating bytecode - see https://github.com/ethereum/solidity/issues/2691\n        return msg.data;\n    }\n}\n\n/**\n * @dev Collection of functions related to the address type\n */\nlibrary Address {\n    /**\n     * @dev Returns true if `account` is a contract.\n     *\n     * [IMPORTANT]\n     * ====\n     * It is unsafe to assume that an address for which this function returns\n     * false is an externally-owned account (EOA) and not a contract.\n     *\n     * Among others, `isContract` will return false for the following\n     * types of addresses:\n     *\n     *  - an externally-owned account\n     *  - a contract in construction\n     *  - an address where a contract will be created\n     *  - an address where a contract lived, but was destroyed\n     * ====\n     */\n    function isContract(address account) internal view returns (bool) {\n        // According to EIP-1052, 0x0 is the value returned for not-yet created accounts\n        // and 0xc5d2460186f7233c927e7db2dcc703c0e500b653ca82273b7bfad8045d85a470 is returned\n        // for accounts without code, i.e. `keccak256('')`\n        bytes32 codehash;\n        bytes32 accountHash = 0xc5d2460186f7233c927e7db2dcc703c0e500b653ca82273b7bfad8045d85a470;\n        // solhint-disable-next-line no-inline-assembly\n        assembly {\n            codehash := extcodehash(account)\n        }\n        return (codehash != accountHash && codehash != 0x0);\n    }\n\n    /**\n     * @dev Replacement for Solidity's `transfer`: sends `amount` wei to\n     * `recipient`, forwarding all available gas and reverting on errors.\n     *\n     * https://eips.ethereum.org/EIPS/eip-1884[EIP1884] increases the gas cost\n     * of certain opcodes, possibly making contracts go over the 2300 gas limit\n     * imposed by `transfer`, making them unable to receive funds via\n     * `transfer`. {sendValue} removes this limitation.\n     *\n     * https://diligence.consensys.net/posts/2019/09/stop-using-soliditys-transfer-now/[Learn more].\n     *\n     * IMPORTANT: because control is transferred to `recipient`, care must be\n     * taken to not create reentrancy vulnerabilities. Consider using\n     * {ReentrancyGuard} or the\n     * https://solidity.readthedocs.io/en/v0.5.11/security-considerations.html#use-the-checks-effects-interactions-pattern[checks-effects-interactions pattern].\n     */\n    function sendValue(address payable recipient, uint256 amount) internal {\n        require(\n            address(this).balance >= amount,\n            \"Address: insufficient balance\"\n        );\n\n        // solhint-disable-next-line avoid-low-level-calls, avoid-call-value\n        (bool success, ) = recipient.call{value: amount}(\"\");\n        require(\n            success,\n            \"Address: unable to send value, recipient may have reverted\"\n        );\n    }\n\n    /**\n     * @dev Performs a Solidity function call using a low level `call`. A\n     * plain`call` is an unsafe replacement for a function call: use this\n     * function instead.\n     *\n     * If `target` reverts with a revert reason, it is bubbled up by this\n     * function (like regular Solidity function calls).\n     *\n     * Returns the raw returned data. To convert to the expected return value,\n     * use https://solidity.readthedocs.io/en/latest/units-and-global-variables.html?highlight=abi.decode#abi-encoding-and-decoding-functions[`abi.decode`].\n     *\n     * Requirements:\n     *\n     * - `target` must be a contract.\n     * - calling `target` with `data` must not revert.\n     *\n     * _Available since v3.1._\n     */\n    function functionCall(address target, bytes memory data)\n        internal\n        returns (bytes memory)\n    {\n        return functionCall(target, data, \"Address: low-level call failed\");\n    }\n\n    /**\n     * @dev Same as {xref-Address-functionCall-address-bytes-}[`functionCall`], but with\n     * `errorMessage` as a fallback revert reason when `target` reverts.\n     *\n     * _Available since v3.1._\n     */\n    function functionCall(\n        address target,\n        bytes memory data,\n        string memory errorMessage\n    ) internal returns (bytes memory) {\n        return _functionCallWithValue(target, data, 0, errorMessage);\n    }\n\n    /**\n     * @dev Same as {xref-Address-functionCall-address-bytes-}[`functionCall`],\n     * but also transferring `value` wei to `target`.\n     *\n     * Requirements:\n     *\n     * - the calling contract must have an ETH balance of at least `value`.\n     * - the called Solidity function must be `payable`.\n     *\n     * _Available since v3.1._\n     */\n    function functionCallWithValue(\n        address target,\n        bytes memory data,\n        uint256 value\n    ) internal returns (bytes memory) {\n        return\n            functionCallWithValue(\n                target,\n                data,\n                value,\n                \"Address: low-level call with value failed\"\n            );\n    }\n\n    /**\n     * @dev Same as {xref-Address-functionCallWithValue-address-bytes-uint256-}[`functionCallWithValue`], but\n     * with `errorMessage` as a fallback revert reason when `target` reverts.\n     *\n     * _Available since v3.1._\n     */\n    function functionCallWithValue(\n        address target,\n        bytes memory data,\n        uint256 value,\n        string memory errorMessage\n    ) internal returns (bytes memory) {\n        require(\n            address(this).balance >= value,\n            \"Address: insufficient balance for call\"\n        );\n        return _functionCallWithValue(target, data, value, errorMessage);\n    }\n\n    function _functionCallWithValue(\n        address target,\n        bytes memory data,\n        uint256 weiValue,\n        string memory errorMessage\n    ) private returns (bytes memory) {\n        require(isContract(target), \"Address: call to non-contract\");\n\n        // solhint-disable-next-line avoid-low-level-calls\n        (bool success, bytes memory returndata) = target.call{value: weiValue}(\n            data\n        );\n        if (success) {\n            return returndata;\n        } else {\n            // Look for revert reason and bubble it up if present\n            if (returndata.length > 0) {\n                // The easiest way to bubble the revert reason is using memory via assembly\n\n                // solhint-disable-next-line no-inline-assembly\n                assembly {\n                    let returndata_size := mload(returndata)\n                    revert(add(32, returndata), returndata_size)\n                }\n            } else {\n                revert(errorMessage);\n            }\n        }\n    }\n}\n\n/**\n * @dev Contract module which provides a basic access control mechanism, where\n * there is an account (an owner) that can be granted exclusive access to\n * specific functions.\n *\n * By default, the owner account will be the one that deploys the contract. This\n * can later be changed with {transferOwnership}.\n *\n * This module is used through inheritance. It will make available the modifier\n * `onlyOwner`, which can be applied to your functions to restrict their use to\n * the owner.\n */\ncontract Ownable is ContextSM {\n    address private _owner;\n    address private _previousOwner;\n    uint256 private _lockTime;\n\n    event OwnershipTransferred(\n        address indexed previousOwner,\n        address indexed newOwner\n    );\n\n    /**\n     * @dev Initializes the contract setting the deployer as the initial owner.\n     */\n    constructor() {\n        address msgSender = _msgSender();\n        _owner = msgSender;\n        emit OwnershipTransferred(address(0), msgSender);\n    }\n\n    /**\n     * @dev Returns the address of the current owner.\n     */\n    function owner() public view returns (address) {\n        return _owner;\n    }\n\n    /**\n     * @dev Throws if called by any account other than the owner.\n     */\n    modifier onlyOwner() {\n        require(_owner == _msgSender(), \"Ownable: caller is not the owner\");\n        _;\n    }\n\n    /**\n     * @dev Leaves the contract without owner. It will not be possible to call\n     * `onlyOwner` functions anymore. Can only be called by the current owner.\n     *\n     * NOTE: Renouncing ownership will leave the contract without an owner,\n     * thereby removing any functionality that is only available to the owner.\n     */\n    function renounceOwnership() public virtual onlyOwner {\n        emit OwnershipTransferred(_owner, address(0));\n        _owner = address(0);\n    }\n\n    /**\n     * @dev Transfers ownership of the contract to a new account (`newOwner`).\n     * Can only be called by the current owner.\n     */\n    function transferOwnership(address newOwner) public virtual onlyOwner {\n        require(\n            newOwner != address(0),\n            \"Ownable: new owner is the zero address\"\n        );\n        emit OwnershipTransferred(_owner, newOwner);\n        _owner = newOwner;\n    }\n\n    function geUnlockTime() public view returns (uint256) {\n        return _lockTime;\n    }\n\n    //Locks the contract for owner for the amount of time provided\n    function lock(uint256 time) public virtual onlyOwner {\n        _previousOwner = _owner;\n        _owner = address(0);\n        _lockTime = block.timestamp + time;\n        emit OwnershipTransferred(_owner, address(0));\n    }\n\n    //Unlocks the contract for owner when _lockTime is exceeds\n    function unlock() public virtual {\n        require(\n            _previousOwner == msg.sender,\n            \"You don't have permission to unlock\"\n        );\n        require(block.timestamp > _lockTime, \"Contract is locked until 7 days\");\n        emit OwnershipTransferred(_owner, _previousOwner);\n        _owner = _previousOwner;\n    }\n}\n\n// pragma solidity >=0.5.0;\n\ninterface IUniswapV2Factory {\n    event PairCreated(\n        address indexed token0,\n        address indexed token1,\n        address pair,\n        uint256\n    );\n\n    function feeTo() external view returns (address);\n\n    function feeToSetter() external view returns (address);\n\n    function getPair(address tokenA, address tokenB)\n        external\n        view\n        returns (address pair);\n\n    function allPairs(uint256) external view returns (address pair);\n\n    function allPairsLength() external view returns (uint256);\n\n    function createPair(address tokenA, address tokenB)\n        external\n        returns (address pair);\n\n    function setFeeTo(address) external;\n\n    function setFeeToSetter(address) external;\n}\n\n// pragma solidity >=0.5.0;\n\ninterface IUniswapV2Pair {\n    event Approval(\n        address indexed owner,\n        address indexed spender,\n        uint256 value\n    );\n    event Transfer(address indexed from, address indexed to, uint256 value);\n\n    function name() external pure returns (string memory);\n\n    function symbol() external pure returns (string memory);\n\n    function decimals() external pure returns (uint8);\n\n    function totalSupply() external view returns (uint256);\n\n    function balanceOf(address owner) external view returns (uint256);\n\n    function allowance(address owner, address spender)\n        external\n        view\n        returns (uint256);\n\n    function approve(address spender, uint256 value) external returns (bool);\n\n    function transfer(address to, uint256 value) external returns (bool);\n\n    function transferFrom(\n        address from,\n        address to,\n        uint256 value\n    ) external returns (bool);\n\n    function DOMAIN_SEPARATOR() external view returns (bytes32);\n\n    function PERMIT_TYPEHASH() external pure returns (bytes32);\n\n    function nonces(address owner) external view returns (uint256);\n\n    function permit(\n        address owner,\n        address spender,\n        uint256 value,\n        uint256 deadline,\n        uint8 v,\n        bytes32 r,\n        bytes32 s\n    ) external;\n\n    event Mint(address indexed sender, uint256 amount0, uint256 amount1);\n    event Burn(\n        address indexed sender,\n        uint256 amount0,\n        uint256 amount1,\n        address indexed to\n    );\n    event Swap(\n        address indexed sender,\n        uint256 amount0In,\n        uint256 amount1In,\n        uint256 amount0Out,\n        uint256 amount1Out,\n        address indexed to\n    );\n    event Sync(uint112 reserve0, uint112 reserve1);\n\n    function MINIMUM_LIQUIDITY() external pure returns (uint256);\n\n    function factory() external view returns (address);\n\n    function token0() external view returns (address);\n\n    function token1() external view returns (address);\n\n    function getReserves()\n        external\n        view\n        returns (\n            uint112 reserve0,\n            uint112 reserve1,\n            uint32 blockTimestampLast\n        );\n\n    function price0CumulativeLast() external view returns (uint256);\n\n    function price1CumulativeLast() external view returns (uint256);\n\n    function kLast() external view returns (uint256);\n\n    function mint(address to) external returns (uint256 liquidity);\n\n    function burn(address to)\n        external\n        returns (uint256 amount0, uint256 amount1);\n\n    function swap(\n        uint256 amount0Out,\n        uint256 amount1Out,\n        address to,\n        bytes calldata data\n    ) external;\n\n    function skim(address to) external;\n\n    function sync() external;\n\n    function initialize(address, address) external;\n}\n\n// pragma solidity >=0.6.2;\n\ninterface IUniswapV2Router01 {\n    function factory() external pure returns (address);\n\n    function WETH() external pure returns (address);\n\n    function addLiquidity(\n        address tokenA,\n        address tokenB,\n        uint256 amountADesired,\n        uint256 amountBDesired,\n        uint256 amountAMin,\n        uint256 amountBMin,\n        address to,\n        uint256 deadline\n    )\n        external\n        returns (\n            uint256 amountA,\n            uint256 amountB,\n            uint256 liquidity\n        );\n\n    function addLiquidityETH(\n        address token,\n        uint256 amountTokenDesired,\n        uint256 amountTokenMin,\n        uint256 amountETHMin,\n        address to,\n        uint256 deadline\n    )\n        external\n        payable\n        returns (\n            uint256 amountToken,\n            uint256 amountETH,\n            uint256 liquidity\n        );\n\n    function removeLiquidity(\n        address tokenA,\n        address tokenB,\n        uint256 liquidity,\n        uint256 amountAMin,\n        uint256 amountBMin,\n        address to,\n        uint256 deadline\n    ) external returns (uint256 amountA, uint256 amountB);\n\n    function removeLiquidityETH(\n        address token,\n        uint256 liquidity,\n        uint256 amountTokenMin,\n        uint256 amountETHMin,\n        address to,\n        uint256 deadline\n    ) external returns (uint256 amountToken, uint256 amountETH);\n\n    function removeLiquidityWithPermit(\n        address tokenA,\n        address tokenB,\n        uint256 liquidity,\n        uint256 amountAMin,\n        uint256 amountBMin,\n        address to,\n        uint256 deadline,\n        bool approveMax,\n        uint8 v,\n        bytes32 r,\n        bytes32 s\n    ) external returns (uint256 amountA, uint256 amountB);\n\n    function removeLiquidityETHWithPermit(\n        address token,\n        uint256 liquidity,\n        uint256 amountTokenMin,\n        uint256 amountETHMin,\n        address to,\n        uint256 deadline,\n        bool approveMax,\n        uint8 v,\n        bytes32 r,\n        bytes32 s\n    ) external returns (uint256 amountToken, uint256 amountETH);\n\n    function swapExactTokensForTokens(\n        uint256 amountIn,\n        uint256 amountOutMin,\n        address[] calldata path,\n        address to,\n        uint256 deadline\n    ) external returns (uint256[] memory amounts);\n\n    function swapTokensForExactTokens(\n        uint256 amountOut,\n        uint256 amountInMax,\n        address[] calldata path,\n        address to,\n        uint256 deadline\n    ) external returns (uint256[] memory amounts);\n\n    function swapExactETHForTokens(\n        uint256 amountOutMin,\n        address[] calldata path,\n        address to,\n        uint256 deadline\n    ) external payable returns (uint256[] memory amounts);\n\n    function swapTokensForExactETH(\n        uint256 amountOut,\n        uint256 amountInMax,\n        address[] calldata path,\n        address to,\n        uint256 deadline\n    ) external returns (uint256[] memory amounts);\n\n    function swapExactTokensForETH(\n        uint256 amountIn,\n        uint256 amountOutMin,\n        address[] calldata path,\n        address to,\n        uint256 deadline\n    ) external returns (uint256[] memory amounts);\n\n    function swapETHForExactTokens(\n        uint256 amountOut,\n        address[] calldata path,\n        address to,\n        uint256 deadline\n    ) external payable returns (uint256[] memory amounts);\n\n    function quote(\n        uint256 amountA,\n        uint256 reserveA,\n        uint256 reserveB\n    ) external pure returns (uint256 amountB);\n\n    function getAmountOut(\n        uint256 amountIn,\n        uint256 reserveIn,\n        uint256 reserveOut\n    ) external pure returns (uint256 amountOut);\n\n    function getAmountIn(\n        uint256 amountOut,\n        uint256 reserveIn,\n        uint256 reserveOut\n    ) external pure returns (uint256 amountIn);\n\n    function getAmountsOut(uint256 amountIn, address[] calldata path)\n        external\n        view\n        returns (uint256[] memory amounts);\n\n    function getAmountsIn(uint256 amountOut, address[] calldata path)\n        external\n        view\n        returns (uint256[] memory amounts);\n}\n\n// pragma solidity >=0.6.2;\n\ninterface IUniswapV2Router02 is IUniswapV2Router01 {\n    function removeLiquidityETHSupportingFeeOnTransferTokens(\n        address token,\n        uint256 liquidity,\n        uint256 amountTokenMin,\n        uint256 amountETHMin,\n        address to,\n        uint256 deadline\n    ) external returns (uint256 amountETH);\n\n    function removeLiquidityETHWithPermitSupportingFeeOnTransferTokens(\n        address token,\n        uint256 liquidity,\n        uint256 amountTokenMin,\n        uint256 amountETHMin,\n        address to,\n        uint256 deadline,\n        bool approveMax,\n        uint8 v,\n        bytes32 r,\n        bytes32 s\n    ) external returns (uint256 amountETH);\n\n    function swapExactTokensForTokensSupportingFeeOnTransferTokens(\n        uint256 amountIn,\n        uint256 amountOutMin,\n        address[] calldata path,\n        address to,\n        uint256 deadline\n    ) external;\n\n    function swapExactETHForTokensSupportingFeeOnTransferTokens(\n        uint256 amountOutMin,\n        address[] calldata path,\n        address to,\n        uint256 deadline\n    ) external payable;\n\n    function swapExactTokensForETHSupportingFeeOnTransferTokens(\n        uint256 amountIn,\n        uint256 amountOutMin,\n        address[] calldata path,\n        address to,\n        uint256 deadline\n    ) external;\n}\n\ncontract SafemoonFork is ContextSM, IERC20SM, Ownable {\n    using SafeMath for uint256;\n    using Address for address;\n\n    mapping(address => uint256) private _rOwned;\n    mapping(address => uint256) private _tOwned;\n    mapping(address => mapping(address => uint256)) private _allowances;\n\n    mapping(address => bool) private _isExcludedFromFee;\n\n    mapping(address => bool) private _isExcluded;\n    address[] private _excluded;\n\n    uint256 private constant MAX = ~uint256(0);\n    uint256 private _tTotal = 1000000000 * 10**6 * 10**9; //CHANGE_OPTIONAL: total supply of token. Recommended to keep unchanged\n    uint256 private _rTotal = (MAX - (MAX % _tTotal));\n    uint256 private _tFeeTotal;\n\n    string private _name = \"SafemoonFork\"; //CHANGE_REQUIRED: name of token\n    string private _symbol = \"SAFEMOONFORK\"; //CHANGE_REQUIRED: ticker of token, usually 3 letter\n    uint8 private _decimals = 9; //CHANGE_OPTIONAL: number of decimals of your token. Recommended to keep unchanged\n\n    uint256 public _taxFee = 5; //CHANGE_OPTIONAL: transaction fee redistributed to all holders\n    uint256 private _previousTaxFee = _taxFee;\n\n    uint256 public _liquidityFee = 5; //CHANGE_OPTIONAL: transaction fee sent to Pancakeswap pool\n    uint256 private _previousLiquidityFee = _liquidityFee;\n\n    IUniswapV2Router02 public uniswapV2Router;\n    address public uniswapV2Pair;\n\n    bool inSwapAndLiquify;\n    bool public swapAndLiquifyEnabled = true; //CHANGE_OPTIONAL: enable / disable locking `liquidityFee` to Pancakeswap\n\n    uint256 public _maxTxAmount = 5000000 * 10**6 * 10**9; //CHANGE_OPTIONAL: max amount of tokens that can be transferred per transaction\n    uint256 private numTokensSellToAddToLiquidity = 500000 * 10**6 * 10**9; //CHANGE_OPTIONAL: minimum number of tokens in contract to sent to Pancakeswap pool\n\n    event MinTokensBeforeSwapUpdated(uint256 minTokensBeforeSwap);\n    event SwapAndLiquifyEnabledUpdated(bool enabled);\n    event SwapAndLiquify(\n        uint256 tokensSwapped,\n        uint256 ethReceived,\n        uint256 tokensIntoLiqudity\n    );\n\n    modifier lockTheSwap() {\n        inSwapAndLiquify = true;\n        _;\n        inSwapAndLiquify = false;\n    }\n\n    constructor(address dexAddress) {\n        _rOwned[_msgSender()] = _rTotal;\n\n        IUniswapV2Router02 _uniswapV2Router = IUniswapV2Router02(dexAddress);\n        // Create a uniswap pair for this new token\n        uniswapV2Pair = IUniswapV2Factory(_uniswapV2Router.factory())\n            .createPair(address(this), _uniswapV2Router.WETH());\n\n        // set the rest of the contract variables\n        uniswapV2Router = _uniswapV2Router;\n\n        //exclude owner and this contract from fee\n        _isExcludedFromFee[owner()] = true;\n        _isExcludedFromFee[address(this)] = true;\n\n        emit Transfer(address(0), _msgSender(), _tTotal);\n    }\n\n    function updateDex(address _newDexAddress) external onlyOwner {\n        IUniswapV2Router02 _uniswapV2Router = IUniswapV2Router02(\n            _newDexAddress\n        );\n        // Create a uniswap pair for this new token\n        uniswapV2Pair = IUniswapV2Factory(_uniswapV2Router.factory())\n            .createPair(address(this), _uniswapV2Router.WETH());\n\n        // set the rest of the contract variables\n        uniswapV2Router = _uniswapV2Router;\n    }\n\n    function name() public view returns (string memory) {\n        return _name;\n    }\n\n    function symbol() public view returns (string memory) {\n        return _symbol;\n    }\n\n    function decimals() public view returns (uint8) {\n        return _decimals;\n    }\n\n    function totalSupply() public view override returns (uint256) {\n        return _tTotal;\n    }\n\n    function balanceOf(address account) public view override returns (uint256) {\n        if (_isExcluded[account]) return _tOwned[account];\n        return tokenFromReflection(_rOwned[account]);\n    }\n\n    function transfer(address recipient, uint256 amount)\n        public\n        override\n        returns (bool)\n    {\n        _transfer(_msgSender(), recipient, amount);\n        return true;\n    }\n\n    function allowance(address owner, address spender)\n        public\n        view\n        override\n        returns (uint256)\n    {\n        return _allowances[owner][spender];\n    }\n\n    function approve(address spender, uint256 amount)\n        public\n        override\n        returns (bool)\n    {\n        _approve(_msgSender(), spender, amount);\n        return true;\n    }\n\n    function transferFrom(\n        address sender,\n        address recipient,\n        uint256 amount\n    ) public override returns (bool) {\n        _transfer(sender, recipient, amount);\n        _approve(\n            sender,\n            _msgSender(),\n            _allowances[sender][_msgSender()].sub(\n                amount,\n                \"ERC20: transfer amount exceeds allowance\"\n            )\n        );\n        return true;\n    }\n\n    function increaseAllowance(address spender, uint256 addedValue)\n        public\n        virtual\n        returns (bool)\n    {\n        _approve(\n            _msgSender(),\n            spender,\n            _allowances[_msgSender()][spender].add(addedValue)\n        );\n        return true;\n    }\n\n    function decreaseAllowance(address spender, uint256 subtractedValue)\n        public\n        virtual\n        returns (bool)\n    {\n        _approve(\n            _msgSender(),\n            spender,\n            _allowances[_msgSender()][spender].sub(\n                subtractedValue,\n                \"ERC20: decreased allowance below zero\"\n            )\n        );\n        return true;\n    }\n\n    function isExcludedFromReward(address account) public view returns (bool) {\n        return _isExcluded[account];\n    }\n\n    function totalFees() public view returns (uint256) {\n        return _tFeeTotal;\n    }\n\n    function deliver(uint256 tAmount) public {\n        address sender = _msgSender();\n        require(\n            !_isExcluded[sender],\n            \"Excluded addresses cannot call this function\"\n        );\n        (uint256 rAmount, , , , , ) = _getValues(tAmount);\n        _rOwned[sender] = _rOwned[sender].sub(rAmount);\n        _rTotal = _rTotal.sub(rAmount);\n        _tFeeTotal = _tFeeTotal.add(tAmount);\n    }\n\n    function reflectionFromToken(uint256 tAmount, bool deductTransferFee)\n        public\n        view\n        returns (uint256)\n    {\n        require(tAmount <= _tTotal, \"Amount must be less than supply\");\n        if (!deductTransferFee) {\n            (uint256 rAmount, , , , , ) = _getValues(tAmount);\n            return rAmount;\n        } else {\n            (, uint256 rTransferAmount, , , , ) = _getValues(tAmount);\n            return rTransferAmount;\n        }\n    }\n\n    function tokenFromReflection(uint256 rAmount)\n        public\n        view\n        returns (uint256)\n    {\n        require(\n            rAmount <= _rTotal,\n            \"Amount must be less than total reflections\"\n        );\n        uint256 currentRate = _getRate();\n        return rAmount.div(currentRate);\n    }\n\n    function excludeFromReward(address account) public onlyOwner {\n        // require(account != 0x7a250d5630B4cF539739dF2C5dAcb4c659F2488D, 'We can not exclude Uniswap router.');\n        require(!_isExcluded[account], \"Account is already excluded\");\n        if (_rOwned[account] > 0) {\n            _tOwned[account] = tokenFromReflection(_rOwned[account]);\n        }\n        _isExcluded[account] = true;\n        _excluded.push(account);\n    }\n\n    function includeInReward(address account) external onlyOwner {\n        require(_isExcluded[account], \"Account is already excluded\");\n        for (uint256 i = 0; i < _excluded.length; i++) {\n            if (_excluded[i] == account) {\n                _excluded[i] = _excluded[_excluded.length - 1];\n                _tOwned[account] = 0;\n                _isExcluded[account] = false;\n                _excluded.pop();\n                break;\n            }\n        }\n    }\n\n    function _transferBothExcluded(\n        address sender,\n        address recipient,\n        uint256 tAmount\n    ) private {\n        (\n            uint256 rAmount,\n            uint256 rTransferAmount,\n            uint256 rFee,\n            uint256 tTransferAmount,\n            uint256 tFee,\n            uint256 tLiquidity\n        ) = _getValues(tAmount);\n        _tOwned[sender] = _tOwned[sender].sub(tAmount);\n        _rOwned[sender] = _rOwned[sender].sub(rAmount);\n        _tOwned[recipient] = _tOwned[recipient].add(tTransferAmount);\n        _rOwned[recipient] = _rOwned[recipient].add(rTransferAmount);\n        _takeLiquidity(tLiquidity);\n        _reflectFee(rFee, tFee);\n        emit Transfer(sender, recipient, tTransferAmount);\n    }\n\n    function excludeFromFee(address account) public onlyOwner {\n        _isExcludedFromFee[account] = true;\n    }\n\n    function includeInFee(address account) public onlyOwner {\n        _isExcludedFromFee[account] = false;\n    }\n\n    function setTaxFeePercent(uint256 taxFee) external onlyOwner {\n        _taxFee = taxFee;\n    }\n\n    function setLiquidityFeePercent(uint256 liquidityFee) external onlyOwner {\n        _liquidityFee = liquidityFee;\n    }\n\n    function setMaxTxPercent(uint256 maxTxPercent) external onlyOwner {\n        _maxTxAmount = _tTotal.mul(maxTxPercent).div(10**2);\n    }\n\n    function setSwapAndLiquifyEnabled(bool _enabled) public onlyOwner {\n        swapAndLiquifyEnabled = _enabled;\n        emit SwapAndLiquifyEnabledUpdated(_enabled);\n    }\n\n    //to recieve ETH from uniswapV2Router when swaping\n    receive() external payable {}\n\n    function _reflectFee(uint256 rFee, uint256 tFee) private {\n        _rTotal = _rTotal.sub(rFee);\n        _tFeeTotal = _tFeeTotal.add(tFee);\n    }\n\n    function _getValues(uint256 tAmount)\n        private\n        view\n        returns (\n            uint256,\n            uint256,\n            uint256,\n            uint256,\n            uint256,\n            uint256\n        )\n    {\n        (\n            uint256 tTransferAmount,\n            uint256 tFee,\n            uint256 tLiquidity\n        ) = _getTValues(tAmount);\n        (uint256 rAmount, uint256 rTransferAmount, uint256 rFee) = _getRValues(\n            tAmount,\n            tFee,\n            tLiquidity,\n            _getRate()\n        );\n        return (\n            rAmount,\n            rTransferAmount,\n            rFee,\n            tTransferAmount,\n            tFee,\n            tLiquidity\n        );\n    }\n\n    function _getTValues(uint256 tAmount)\n        private\n        view\n        returns (\n            uint256,\n            uint256,\n            uint256\n        )\n    {\n        uint256 tFee = calculateTaxFee(tAmount);\n        uint256 tLiquidity = calculateLiquidityFee(tAmount);\n        uint256 tTransferAmount = tAmount.sub(tFee).sub(tLiquidity);\n        return (tTransferAmount, tFee, tLiquidity);\n    }\n\n    function _getRValues(\n        uint256 tAmount,\n        uint256 tFee,\n        uint256 tLiquidity,\n        uint256 currentRate\n    )\n        private\n        pure\n        returns (\n            uint256,\n            uint256,\n            uint256\n        )\n    {\n        uint256 rAmount = tAmount.mul(currentRate);\n        uint256 rFee = tFee.mul(currentRate);\n        uint256 rLiquidity = tLiquidity.mul(currentRate);\n        uint256 rTransferAmount = rAmount.sub(rFee).sub(rLiquidity);\n        return (rAmount, rTransferAmount, rFee);\n    }\n\n    function _getRate() private view returns (uint256) {\n        (uint256 rSupply, uint256 tSupply) = _getCurrentSupply();\n        return rSupply.div(tSupply);\n    }\n\n    function _getCurrentSupply() private view returns (uint256, uint256) {\n        uint256 rSupply = _rTotal;\n        uint256 tSupply = _tTotal;\n        for (uint256 i = 0; i < _excluded.length; i++) {\n            if (\n                _rOwned[_excluded[i]] > rSupply ||\n                _tOwned[_excluded[i]] > tSupply\n            ) return (_rTotal, _tTotal);\n            rSupply = rSupply.sub(_rOwned[_excluded[i]]);\n            tSupply = tSupply.sub(_tOwned[_excluded[i]]);\n        }\n        if (rSupply < _rTotal.div(_tTotal)) return (_rTotal, _tTotal);\n        return (rSupply, tSupply);\n    }\n\n    function _takeLiquidity(uint256 tLiquidity) private {\n        uint256 currentRate = _getRate();\n        uint256 rLiquidity = tLiquidity.mul(currentRate);\n        _rOwned[address(this)] = _rOwned[address(this)].add(rLiquidity);\n        if (_isExcluded[address(this)])\n            _tOwned[address(this)] = _tOwned[address(this)].add(tLiquidity);\n    }\n\n    function calculateTaxFee(uint256 _amount) private view returns (uint256) {\n        return _amount.mul(_taxFee).div(10**2);\n    }\n\n    function calculateLiquidityFee(uint256 _amount)\n        private\n        view\n        returns (uint256)\n    {\n        return _amount.mul(_liquidityFee).div(10**2);\n    }\n\n    function removeAllFee() private {\n        if (_taxFee == 0 && _liquidityFee == 0) return;\n\n        _previousTaxFee = _taxFee;\n        _previousLiquidityFee = _liquidityFee;\n\n        _taxFee = 0;\n        _liquidityFee = 0;\n    }\n\n    function restoreAllFee() private {\n        _taxFee = _previousTaxFee;\n        _liquidityFee = _previousLiquidityFee;\n    }\n\n    function isExcludedFromFee(address account) public view returns (bool) {\n        return _isExcludedFromFee[account];\n    }\n\n    function _approve(\n        address owner,\n        address spender,\n        uint256 amount\n    ) private {\n        require(owner != address(0), \"ERC20: approve from the zero address\");\n        require(spender != address(0), \"ERC20: approve to the zero address\");\n\n        _allowances[owner][spender] = amount;\n        emit Approval(owner, spender, amount);\n    }\n\n    function _transfer(\n        address from,\n        address to,\n        uint256 amount\n    ) private {\n        require(from != address(0), \"ERC20: transfer from the zero address\");\n        require(to != address(0), \"ERC20: transfer to the zero address\");\n        require(amount > 0, \"Transfer amount must be greater than zero\");\n        if (from != owner() && to != owner())\n            require(\n                amount <= _maxTxAmount,\n                \"Transfer amount exceeds the maxTxAmount.\"\n            );\n\n        // is the token balance of this contract address over the min number of\n        // tokens that we need to initiate a swap + liquidity lock?\n        // also, don't get caught in a circular liquidity event.\n        // also, don't swap & liquify if sender is uniswap pair.\n        uint256 contractTokenBalance = balanceOf(address(this));\n\n        if (contractTokenBalance >= _maxTxAmount) {\n            contractTokenBalance = _maxTxAmount;\n        }\n\n        bool overMinTokenBalance = contractTokenBalance >=\n            numTokensSellToAddToLiquidity;\n        if (\n            overMinTokenBalance &&\n            !inSwapAndLiquify &&\n            from != uniswapV2Pair &&\n            swapAndLiquifyEnabled\n        ) {\n            contractTokenBalance = numTokensSellToAddToLiquidity;\n            //add liquidity\n            swapAndLiquify(contractTokenBalance);\n        }\n\n        //indicates if fee should be deducted from transfer\n        bool takeFee = true;\n\n        //if any account belongs to _isExcludedFromFee account then remove the fee\n        if (_isExcludedFromFee[from] || _isExcludedFromFee[to]) {\n            takeFee = false;\n        }\n\n        //transfer amount, it will take tax, burn, liquidity fee\n        _tokenTransfer(from, to, amount, takeFee);\n    }\n\n    function swapAndLiquify(uint256 contractTokenBalance) private lockTheSwap {\n        // split the contract balance into halves\n        uint256 half = contractTokenBalance.div(2);\n        uint256 otherHalf = contractTokenBalance.sub(half);\n\n        // capture the contract's current ETH balance.\n        // this is so that we can capture exactly the amount of ETH that the\n        // swap creates, and not make the liquidity event include any ETH that\n        // has been manually sent to the contract\n        uint256 initialBalance = address(this).balance;\n\n        // swap tokens for ETH\n        swapTokensForEth(half); // <- this breaks the ETH -> HATE swap when swap+liquify is triggered\n\n        // how much ETH did we just swap into?\n        uint256 newBalance = address(this).balance.sub(initialBalance);\n\n        // add liquidity to uniswap\n        addLiquidity(otherHalf, newBalance);\n\n        emit SwapAndLiquify(half, newBalance, otherHalf);\n    }\n\n    function swapTokensForEth(uint256 tokenAmount) private {\n        // generate the uniswap pair path of token -> weth\n        address[] memory path = new address[](2);\n        path[0] = address(this);\n        path[1] = uniswapV2Router.WETH();\n\n        _approve(address(this), address(uniswapV2Router), tokenAmount);\n\n        // make the swap\n        uniswapV2Router.swapExactTokensForETHSupportingFeeOnTransferTokens(\n            tokenAmount,\n            0, // accept any amount of ETH\n            path,\n            address(this),\n            block.timestamp\n        );\n    }\n\n    function addLiquidity(uint256 tokenAmount, uint256 ethAmount) private {\n        // approve token transfer to cover all possible scenarios\n        _approve(address(this), address(uniswapV2Router), tokenAmount);\n\n        // add the liquidity\n        uniswapV2Router.addLiquidityETH{value: ethAmount}(\n            address(this),\n            tokenAmount,\n            0, // slippage is unavoidable\n            0, // slippage is unavoidable\n            owner(),\n            block.timestamp\n        );\n    }\n\n    //this method is responsible for taking all fee, if takeFee is true\n    function _tokenTransfer(\n        address sender,\n        address recipient,\n        uint256 amount,\n        bool takeFee\n    ) private {\n        if (!takeFee) removeAllFee();\n\n        if (_isExcluded[sender] && !_isExcluded[recipient]) {\n            _transferFromExcluded(sender, recipient, amount);\n        } else if (!_isExcluded[sender] && _isExcluded[recipient]) {\n            _transferToExcluded(sender, recipient, amount);\n        } else if (!_isExcluded[sender] && !_isExcluded[recipient]) {\n            _transferStandard(sender, recipient, amount);\n        } else if (_isExcluded[sender] && _isExcluded[recipient]) {\n            _transferBothExcluded(sender, recipient, amount);\n        } else {\n            _transferStandard(sender, recipient, amount);\n        }\n\n        if (!takeFee) restoreAllFee();\n    }\n\n    function _transferStandard(\n        address sender,\n        address recipient,\n        uint256 tAmount\n    ) private {\n        (\n            uint256 rAmount,\n            uint256 rTransferAmount,\n            uint256 rFee,\n            uint256 tTransferAmount,\n            uint256 tFee,\n            uint256 tLiquidity\n        ) = _getValues(tAmount);\n        _rOwned[sender] = _rOwned[sender].sub(rAmount);\n        _rOwned[recipient] = _rOwned[recipient].add(rTransferAmount);\n        _takeLiquidity(tLiquidity);\n        _reflectFee(rFee, tFee);\n        emit Transfer(sender, recipient, tTransferAmount);\n    }\n\n    function _transferToExcluded(\n        address sender,\n        address recipient,\n        uint256 tAmount\n    ) private {\n        (\n            uint256 rAmount,\n            uint256 rTransferAmount,\n            uint256 rFee,\n            uint256 tTransferAmount,\n            uint256 tFee,\n            uint256 tLiquidity\n        ) = _getValues(tAmount);\n        _rOwned[sender] = _rOwned[sender].sub(rAmount);\n        _tOwned[recipient] = _tOwned[recipient].add(tTransferAmount);\n        _rOwned[recipient] = _rOwned[recipient].add(rTransferAmount);\n        _takeLiquidity(tLiquidity);\n        _reflectFee(rFee, tFee);\n        emit Transfer(sender, recipient, tTransferAmount);\n    }\n\n    function _transferFromExcluded(\n        address sender,\n        address recipient,\n        uint256 tAmount\n    ) private {\n        (\n            uint256 rAmount,\n            uint256 rTransferAmount,\n            uint256 rFee,\n            uint256 tTransferAmount,\n            uint256 tFee,\n            uint256 tLiquidity\n        ) = _getValues(tAmount);\n        _tOwned[sender] = _tOwned[sender].sub(tAmount);\n        _rOwned[sender] = _rOwned[sender].sub(rAmount);\n        _rOwned[recipient] = _rOwned[recipient].add(rTransferAmount);\n        _takeLiquidity(tLiquidity);\n        _reflectFee(rFee, tFee);\n        emit Transfer(sender, recipient, tTransferAmount);\n    }\n}\n",
  "sourcePath": "C:\\Users\\Farasat\\Desktop\\Mine\\_Blockchain\\Eat The Blocks\\Create Your Own Tokens\\safemoon_clone\\contracts\\SafemoonFork.sol",
  "compiler": {
    "name": "solc",
    "version": "0.8.13+commit.abaa5c0e.Emscripten.clang"
  },
  "schemaVersion": "3.4.7",
  "updatedAt": "2022-05-02T10:59:49.963Z",
  "networkType": "ethereum",
  "devdoc": {
    "kind": "dev",
    "methods": {
      "allowance(address,address)": {
        "details": "Returns the remaining number of tokens that `spender` will be allowed to spend on behalf of `owner` through {transferFrom}. This is zero by default. This value changes when {approve} or {transferFrom} are called."
      },
      "approve(address,uint256)": {
        "details": "Sets `amount` as the allowance of `spender` over the caller's tokens. Returns a boolean value indicating whether the operation succeeded. IMPORTANT: Beware that changing an allowance with this method brings the risk that someone may use both the old and the new allowance by unfortunate transaction ordering. One possible solution to mitigate this race condition is to first reduce the spender's allowance to 0 and set the desired value afterwards: https://github.com/ethereum/EIPs/issues/20#issuecomment-263524729 Emits an {Approval} event."
      },
      "balanceOf(address)": {
        "details": "Returns the amount of tokens owned by `account`."
      },
      "owner()": {
        "details": "Returns the address of the current owner."
      },
      "renounceOwnership()": {
        "details": "Leaves the contract without owner. It will not be possible to call `onlyOwner` functions anymore. Can only be called by the current owner. NOTE: Renouncing ownership will leave the contract without an owner, thereby removing any functionality that is only available to the owner."
      },
      "transfer(address,uint256)": {
        "details": "Moves `amount` tokens from the caller's account to `recipient`. Returns a boolean value indicating whether the operation succeeded. Emits a {Transfer} event."
      },
      "transferFrom(address,address,uint256)": {
        "details": "Moves `amount` tokens from `sender` to `recipient` using the allowance mechanism. `amount` is then deducted from the caller's allowance. Returns a boolean value indicating whether the operation succeeded. Emits a {Transfer} event."
      },
      "transferOwnership(address)": {
        "details": "Transfers ownership of the contract to a new account (`newOwner`). Can only be called by the current owner."
      }
    },
    "version": 1
  },
  "userdoc": {
    "kind": "user",
    "methods": {},
    "version": 1
  }
}