{
  "contractName": "Token",
  "abi": [
    {
      "inputs": [],
      "stateMutability": "nonpayable",
      "type": "constructor"
    },
    {
      "anonymous": false,
      "inputs": [
        {
          "indexed": true,
          "internalType": "address",
          "name": "owner",
          "type": "address"
        },
        {
          "indexed": true,
          "internalType": "address",
          "name": "spender",
          "type": "address"
        },
        {
          "indexed": false,
          "internalType": "uint256",
          "name": "value",
          "type": "uint256"
        }
      ],
      "name": "Approval",
      "type": "event"
    },
    {
      "anonymous": false,
      "inputs": [
        {
          "indexed": true,
          "internalType": "address",
          "name": "from",
          "type": "address"
        },
        {
          "indexed": true,
          "internalType": "address",
          "name": "to",
          "type": "address"
        },
        {
          "indexed": false,
          "internalType": "uint256",
          "name": "value",
          "type": "uint256"
        }
      ],
      "name": "Transfer",
      "type": "event"
    },
    {
      "inputs": [],
      "name": "admin",
      "outputs": [
        {
          "internalType": "address",
          "name": "",
          "type": "address"
        }
      ],
      "stateMutability": "view",
      "type": "function"
    },
    {
      "inputs": [
        {
          "internalType": "address",
          "name": "owner",
          "type": "address"
        },
        {
          "internalType": "address",
          "name": "spender",
          "type": "address"
        }
      ],
      "name": "allowance",
      "outputs": [
        {
          "internalType": "uint256",
          "name": "",
          "type": "uint256"
        }
      ],
      "stateMutability": "view",
      "type": "function"
    },
    {
      "inputs": [
        {
          "internalType": "address",
          "name": "spender",
          "type": "address"
        },
        {
          "internalType": "uint256",
          "name": "amount",
          "type": "uint256"
        }
      ],
      "name": "approve",
      "outputs": [
        {
          "internalType": "bool",
          "name": "",
          "type": "bool"
        }
      ],
      "stateMutability": "nonpayable",
      "type": "function"
    },
    {
      "inputs": [
        {
          "internalType": "address",
          "name": "account",
          "type": "address"
        }
      ],
      "name": "balanceOf",
      "outputs": [
        {
          "internalType": "uint256",
          "name": "",
          "type": "uint256"
        }
      ],
      "stateMutability": "view",
      "type": "function"
    },
    {
      "inputs": [],
      "name": "charity",
      "outputs": [
        {
          "internalType": "address",
          "name": "",
          "type": "address"
        }
      ],
      "stateMutability": "view",
      "type": "function"
    },
    {
      "inputs": [],
      "name": "decimals",
      "outputs": [
        {
          "internalType": "uint8",
          "name": "",
          "type": "uint8"
        }
      ],
      "stateMutability": "view",
      "type": "function"
    },
    {
      "inputs": [
        {
          "internalType": "address",
          "name": "spender",
          "type": "address"
        },
        {
          "internalType": "uint256",
          "name": "subtractedValue",
          "type": "uint256"
        }
      ],
      "name": "decreaseAllowance",
      "outputs": [
        {
          "internalType": "bool",
          "name": "",
          "type": "bool"
        }
      ],
      "stateMutability": "nonpayable",
      "type": "function"
    },
    {
      "inputs": [
        {
          "internalType": "address",
          "name": "",
          "type": "address"
        }
      ],
      "name": "excludedFromTax",
      "outputs": [
        {
          "internalType": "bool",
          "name": "",
          "type": "bool"
        }
      ],
      "stateMutability": "view",
      "type": "function"
    },
    {
      "inputs": [
        {
          "internalType": "address",
          "name": "spender",
          "type": "address"
        },
        {
          "internalType": "uint256",
          "name": "addedValue",
          "type": "uint256"
        }
      ],
      "name": "increaseAllowance",
      "outputs": [
        {
          "internalType": "bool",
          "name": "",
          "type": "bool"
        }
      ],
      "stateMutability": "nonpayable",
      "type": "function"
    },
    {
      "inputs": [],
      "name": "name",
      "outputs": [
        {
          "internalType": "string",
          "name": "",
          "type": "string"
        }
      ],
      "stateMutability": "view",
      "type": "function"
    },
    {
      "inputs": [],
      "name": "symbol",
      "outputs": [
        {
          "internalType": "string",
          "name": "",
          "type": "string"
        }
      ],
      "stateMutability": "view",
      "type": "function"
    },
    {
      "inputs": [],
      "name": "totalSupply",
      "outputs": [
        {
          "internalType": "uint256",
          "name": "",
          "type": "uint256"
        }
      ],
      "stateMutability": "view",
      "type": "function"
    },
    {
      "inputs": [
        {
          "internalType": "address",
          "name": "recipient",
          "type": "address"
        },
        {
          "internalType": "uint256",
          "name": "amount",
          "type": "uint256"
        }
      ],
      "name": "transfer",
      "outputs": [
        {
          "internalType": "bool",
          "name": "",
          "type": "bool"
        }
      ],
      "stateMutability": "nonpayable",
      "type": "function"
    },
    {
      "inputs": [
        {
          "internalType": "address",
          "name": "sender",
          "type": "address"
        },
        {
          "internalType": "address",
          "name": "recipient",
          "type": "address"
        },
        {
          "internalType": "uint256",
          "name": "amount",
          "type": "uint256"
        }
      ],
      "name": "transferFrom",
      "outputs": [
        {
          "internalType": "bool",
          "name": "",
          "type": "bool"
        }
      ],
      "stateMutability": "nonpayable",
      "type": "function"
    },
    {
      "inputs": [
        {
          "internalType": "address",
          "name": "excluded",
          "type": "address"
        }
      ],
      "name": "addExcludedFromTax",
      "outputs": [],
      "stateMutability": "nonpayable",
      "type": "function"
    },
    {
      "inputs": [
        {
          "internalType": "address",
          "name": "_charity",
          "type": "address"
        }
      ],
      "name": "updateCharity",
      "outputs": [],
      "stateMutability": "nonpayable",
      "type": "function"
    }
  ],
  "bytecode": "0x608060405260058055600560065560056007553480156200001f57600080fd5b506040518060400160405280600581526020017f544f4b454e0000000000000000000000000000000000000000000000000000008152506040518060400160405280600381526020017f544b4e00000000000000000000000000000000000000000000000000000000008152508160039080519060200190620000a4929190620002fd565b508060049080519060200190620000bd929190620002fd565b505050620000dc3369d3c21bcecceda10000006200017b60201b60201c565b33600860006101000a81548173ffffffffffffffffffffffffffffffffffffffff021916908373ffffffffffffffffffffffffffffffffffffffff1602179055506001600a60003373ffffffffffffffffffffffffffffffffffffffff1673ffffffffffffffffffffffffffffffffffffffff16815260200190815260200160002060006101000a81548160ff02191690831515021790555062000558565b600073ffffffffffffffffffffffffffffffffffffffff168273ffffffffffffffffffffffffffffffffffffffff1603620001ed576040517f08c379a0000000000000000000000000000000000000000000000000000000008152600401620001e4906200040e565b60405180910390fd5b6200020160008383620002f360201b60201c565b806002600082825462000215919062000469565b92505081905550806000808473ffffffffffffffffffffffffffffffffffffffff1673ffffffffffffffffffffffffffffffffffffffff16815260200190815260200160002060008282546200026c919062000469565b925050819055508173ffffffffffffffffffffffffffffffffffffffff16600073ffffffffffffffffffffffffffffffffffffffff167fddf252ad1be2c89b69c2b068fc378daa952ba7f163c4a11628f55a4df523b3ef83604051620002d39190620004d7565b60405180910390a3620002ef60008383620002f860201b60201c565b5050565b505050565b505050565b8280546200030b9062000523565b90600052602060002090601f0160209004810192826200032f57600085556200037b565b82601f106200034a57805160ff19168380011785556200037b565b828001600101855582156200037b579182015b828111156200037a5782518255916020019190600101906200035d565b5b5090506200038a91906200038e565b5090565b5b80821115620003a95760008160009055506001016200038f565b5090565b600082825260208201905092915050565b7f45524332303a206d696e7420746f20746865207a65726f206164647265737300600082015250565b6000620003f6601f83620003ad565b91506200040382620003be565b602082019050919050565b600060208201905081810360008301526200042981620003e7565b9050919050565b6000819050919050565b7f4e487b7100000000000000000000000000000000000000000000000000000000600052601160045260246000fd5b6000620004768262000430565b9150620004838362000430565b9250827fffffffffffffffffffffffffffffffffffffffffffffffffffffffffffffffff03821115620004bb57620004ba6200043a565b5b828201905092915050565b620004d18162000430565b82525050565b6000602082019050620004ee6000830184620004c6565b92915050565b7f4e487b7100000000000000000000000000000000000000000000000000000000600052602260045260246000fd5b600060028204905060018216806200053c57607f821691505b602082108103620005525762000551620004f4565b5b50919050565b611e6980620005686000396000f3fe608060405234801561001057600080fd5b50600436106101005760003560e01c8063934aa02311610097578063a9059cbb11610066578063a9059cbb146102d7578063dd62ed3e14610307578063f0b9b12014610337578063f851a4401461035357610100565b8063934aa0231461023b57806395d89b4114610259578063989763ef14610277578063a457c2d7146102a757610100565b8063313ce567116100d3578063313ce567146101a157806339509351146101bf57806370a08231146101ef578063837f39641461021f57610100565b806306fdde0314610105578063095ea7b31461012357806318160ddd1461015357806323b872dd14610171575b600080fd5b61010d610371565b60405161011a919061142e565b60405180910390f35b61013d600480360381019061013891906114e9565b610403565b60405161014a9190611544565b60405180910390f35b61015b610426565b604051610168919061156e565b60405180910390f35b61018b60048036038101906101869190611589565b610430565b6040516101989190611544565b60405180910390f35b6101a9610645565b6040516101b691906115f8565b60405180910390f35b6101d960048036038101906101d491906114e9565b61064e565b6040516101e69190611544565b60405180910390f35b61020960048036038101906102049190611613565b610685565b604051610216919061156e565b60405180910390f35b61023960048036038101906102349190611613565b6106cd565b005b6102436107b8565b604051610250919061164f565b60405180910390f35b6102616107de565b60405161026e919061142e565b60405180910390f35b610291600480360381019061028c9190611613565b610870565b60405161029e9190611544565b60405180910390f35b6102c160048036038101906102bc91906114e9565b610890565b6040516102ce9190611544565b60405180910390f35b6102f160048036038101906102ec91906114e9565b610907565b6040516102fe9190611544565b60405180910390f35b610321600480360381019061031c919061166a565b610abc565b60405161032e919061156e565b60405180910390f35b610351600480360381019061034c9190611613565b610b43565b005b61035b610c17565b604051610368919061164f565b60405180910390f35b606060038054610380906116d9565b80601f01602080910402602001604051908101604052809291908181526020018280546103ac906116d9565b80156103f95780601f106103ce576101008083540402835291602001916103f9565b820191906000526020600020905b8154815290600101906020018083116103dc57829003601f168201915b5050505050905090565b60008061040e610c3d565b905061041b818585610c45565b600191505092915050565b6000600254905090565b600060011515600a60008673ffffffffffffffffffffffffffffffffffffffff1673ffffffffffffffffffffffffffffffffffffffff16815260200190815260200160002060009054906101000a900460ff161515036104e857610495848484610e0e565b6104e3846104a1610c3d565b6104de85604051806060016040528060288152602001611e0c602891396104cf8a6104ca610c3d565b610abc565b61108d9092919063ffffffff16565b610c45565b61063a565b60006064610501600554856110f190919063ffffffff16565b61050b9190611768565b905060006064610526600654866110f190919063ffffffff16565b6105309190611768565b90506000606461054b600754876110f190919063ffffffff16565b6105559190611768565b9050610561878461116b565b61058e87600860009054906101000a900473ffffffffffffffffffffffffffffffffffffffff1684610e0e565b6105bb87600960009054906101000a900473ffffffffffffffffffffffffffffffffffffffff1683610e0e565b60006105f4826105e6856105d8888b61134190919063ffffffff16565b61134190919063ffffffff16565b61134190919063ffffffff16565b9050610601888883610e0e565b6106358861060d610c3d565b610630846106228d61061d610c3d565b610abc565b61134190919063ffffffff16565b610c45565b505050505b600190509392505050565b60006012905090565b600080610659610c3d565b905061067a81858561066b8589610abc565b6106759190611799565b610c45565b600191505092915050565b60008060008373ffffffffffffffffffffffffffffffffffffffff1673ffffffffffffffffffffffffffffffffffffffff168152602001908152602001600020549050919050565b600860009054906101000a900473ffffffffffffffffffffffffffffffffffffffff1673ffffffffffffffffffffffffffffffffffffffff163373ffffffffffffffffffffffffffffffffffffffff161461075d576040517f08c379a00000000000000000000000000000000000000000000000000000000081526004016107549061183b565b60405180910390fd5b6001600a60008373ffffffffffffffffffffffffffffffffffffffff1673ffffffffffffffffffffffffffffffffffffffff16815260200190815260200160002060006101000a81548160ff02191690831515021790555050565b600960009054906101000a900473ffffffffffffffffffffffffffffffffffffffff1681565b6060600480546107ed906116d9565b80601f0160208091040260200160405190810160405280929190818152602001828054610819906116d9565b80156108665780601f1061083b57610100808354040283529160200191610866565b820191906000526020600020905b81548152906001019060200180831161084957829003601f168201915b5050505050905090565b600a6020528060005260406000206000915054906101000a900460ff1681565b60008061089b610c3d565b905060006108a98286610abc565b9050838110156108ee576040517f08c379a00000000000000000000000000000000000000000000000000000000081526004016108e5906118cd565b60405180910390fd5b6108fb8286868403610c45565b60019250505092915050565b600060011515600a60003373ffffffffffffffffffffffffffffffffffffffff1673ffffffffffffffffffffffffffffffffffffffff16815260200190815260200160002060009054906101000a900460ff161515036109785761097361096c610c3d565b8484610e0e565b610ab2565b60006064610991600554856110f190919063ffffffff16565b61099b9190611768565b9050600060646109b6600654866110f190919063ffffffff16565b6109c09190611768565b9050600060646109db600754876110f190919063ffffffff16565b6109e59190611768565b90506109f86109f2610c3d565b8461116b565b610a2c610a03610c3d565b600860009054906101000a900473ffffffffffffffffffffffffffffffffffffffff1684610e0e565b610a60610a37610c3d565b600960009054906101000a900473ffffffffffffffffffffffffffffffffffffffff1683610e0e565b6000610a9982610a8b85610a7d888b61134190919063ffffffff16565b61134190919063ffffffff16565b61134190919063ffffffff16565b9050610aad610aa6610c3d565b8883610e0e565b505050505b6001905092915050565b6000600160008473ffffffffffffffffffffffffffffffffffffffff1673ffffffffffffffffffffffffffffffffffffffff16815260200190815260200160002060008373ffffffffffffffffffffffffffffffffffffffff1673ffffffffffffffffffffffffffffffffffffffff16815260200190815260200160002054905092915050565b600860009054906101000a900473ffffffffffffffffffffffffffffffffffffffff1673ffffffffffffffffffffffffffffffffffffffff163373ffffffffffffffffffffffffffffffffffffffff1614610bd3576040517f08c379a0000000000000000000000000000000000000000000000000000000008152600401610bca9061183b565b60405180910390fd5b80600960006101000a81548173ffffffffffffffffffffffffffffffffffffffff021916908373ffffffffffffffffffffffffffffffffffffffff16021790555050565b600860009054906101000a900473ffffffffffffffffffffffffffffffffffffffff1681565b600033905090565b600073ffffffffffffffffffffffffffffffffffffffff168373ffffffffffffffffffffffffffffffffffffffff1603610cb4576040517f08c379a0000000000000000000000000000000000000000000000000000000008152600401610cab9061195f565b60405180910390fd5b600073ffffffffffffffffffffffffffffffffffffffff168273ffffffffffffffffffffffffffffffffffffffff1603610d23576040517f08c379a0000000000000000000000000000000000000000000000000000000008152600401610d1a906119f1565b60405180910390fd5b80600160008573ffffffffffffffffffffffffffffffffffffffff1673ffffffffffffffffffffffffffffffffffffffff16815260200190815260200160002060008473ffffffffffffffffffffffffffffffffffffffff1673ffffffffffffffffffffffffffffffffffffffff168152602001908152602001600020819055508173ffffffffffffffffffffffffffffffffffffffff168373ffffffffffffffffffffffffffffffffffffffff167f8c5be1e5ebec7d5bd14f71427d1e84f3dd0314c0f7b2291e5b200ac8c7c3b92583604051610e01919061156e565b60405180910390a3505050565b600073ffffffffffffffffffffffffffffffffffffffff168373ffffffffffffffffffffffffffffffffffffffff1603610e7d576040517f08c379a0000000000000000000000000000000000000000000000000000000008152600401610e7490611a83565b60405180910390fd5b600073ffffffffffffffffffffffffffffffffffffffff168273ffffffffffffffffffffffffffffffffffffffff1603610eec576040517f08c379a0000000000000000000000000000000000000000000000000000000008152600401610ee390611b15565b60405180910390fd5b610ef783838361138b565b60008060008573ffffffffffffffffffffffffffffffffffffffff1673ffffffffffffffffffffffffffffffffffffffff16815260200190815260200160002054905081811015610f7d576040517f08c379a0000000000000000000000000000000000000000000000000000000008152600401610f7490611ba7565b60405180910390fd5b8181036000808673ffffffffffffffffffffffffffffffffffffffff1673ffffffffffffffffffffffffffffffffffffffff16815260200190815260200160002081905550816000808573ffffffffffffffffffffffffffffffffffffffff1673ffffffffffffffffffffffffffffffffffffffff16815260200190815260200160002060008282546110109190611799565b925050819055508273ffffffffffffffffffffffffffffffffffffffff168473ffffffffffffffffffffffffffffffffffffffff167fddf252ad1be2c89b69c2b068fc378daa952ba7f163c4a11628f55a4df523b3ef84604051611074919061156e565b60405180910390a3611087848484611390565b50505050565b60008383111582906110d5576040517f08c379a00000000000000000000000000000000000000000000000000000000081526004016110cc919061142e565b60405180910390fd5b50600083856110e49190611bc7565b9050809150509392505050565b60008083036111035760009050611165565b600082846111119190611bfb565b90508284826111209190611768565b14611160576040517f08c379a000000000000000000000000000000000000000000000000000000000815260040161115790611cc7565b60405180910390fd5b809150505b92915050565b600073ffffffffffffffffffffffffffffffffffffffff168273ffffffffffffffffffffffffffffffffffffffff16036111da576040517f08c379a00000000000000000000000000000000000000000000000000000000081526004016111d190611d59565b60405180910390fd5b6111e68260008361138b565b60008060008473ffffffffffffffffffffffffffffffffffffffff1673ffffffffffffffffffffffffffffffffffffffff1681526020019081526020016000205490508181101561126c576040517f08c379a000000000000000000000000000000000000000000000000000000000815260040161126390611deb565b60405180910390fd5b8181036000808573ffffffffffffffffffffffffffffffffffffffff1673ffffffffffffffffffffffffffffffffffffffff1681526020019081526020016000208190555081600260008282546112c39190611bc7565b92505081905550600073ffffffffffffffffffffffffffffffffffffffff168373ffffffffffffffffffffffffffffffffffffffff167fddf252ad1be2c89b69c2b068fc378daa952ba7f163c4a11628f55a4df523b3ef84604051611328919061156e565b60405180910390a361133c83600084611390565b505050565b600061138383836040518060400160405280601e81526020017f536166654d6174683a207375627472616374696f6e206f766572666c6f77000081525061108d565b905092915050565b505050565b505050565b600081519050919050565b600082825260208201905092915050565b60005b838110156113cf5780820151818401526020810190506113b4565b838111156113de576000848401525b50505050565b6000601f19601f8301169050919050565b600061140082611395565b61140a81856113a0565b935061141a8185602086016113b1565b611423816113e4565b840191505092915050565b6000602082019050818103600083015261144881846113f5565b905092915050565b600080fd5b600073ffffffffffffffffffffffffffffffffffffffff82169050919050565b600061148082611455565b9050919050565b61149081611475565b811461149b57600080fd5b50565b6000813590506114ad81611487565b92915050565b6000819050919050565b6114c6816114b3565b81146114d157600080fd5b50565b6000813590506114e3816114bd565b92915050565b60008060408385031215611500576114ff611450565b5b600061150e8582860161149e565b925050602061151f858286016114d4565b9150509250929050565b60008115159050919050565b61153e81611529565b82525050565b60006020820190506115596000830184611535565b92915050565b611568816114b3565b82525050565b6000602082019050611583600083018461155f565b92915050565b6000806000606084860312156115a2576115a1611450565b5b60006115b08682870161149e565b93505060206115c18682870161149e565b92505060406115d2868287016114d4565b9150509250925092565b600060ff82169050919050565b6115f2816115dc565b82525050565b600060208201905061160d60008301846115e9565b92915050565b60006020828403121561162957611628611450565b5b60006116378482850161149e565b91505092915050565b61164981611475565b82525050565b60006020820190506116646000830184611640565b92915050565b6000806040838503121561168157611680611450565b5b600061168f8582860161149e565b92505060206116a08582860161149e565b9150509250929050565b7f4e487b7100000000000000000000000000000000000000000000000000000000600052602260045260246000fd5b600060028204905060018216806116f157607f821691505b602082108103611704576117036116aa565b5b50919050565b7f4e487b7100000000000000000000000000000000000000000000000000000000600052601260045260246000fd5b7f4e487b7100000000000000000000000000000000000000000000000000000000600052601160045260246000fd5b6000611773826114b3565b915061177e836114b3565b92508261178e5761178d61170a565b5b828204905092915050565b60006117a4826114b3565b91506117af836114b3565b9250827fffffffffffffffffffffffffffffffffffffffffffffffffffffffffffffffff038211156117e4576117e3611739565b5b828201905092915050565b7f6f6e6c792061646d696e00000000000000000000000000000000000000000000600082015250565b6000611825600a836113a0565b9150611830826117ef565b602082019050919050565b6000602082019050818103600083015261185481611818565b9050919050565b7f45524332303a2064656372656173656420616c6c6f77616e63652062656c6f7760008201527f207a65726f000000000000000000000000000000000000000000000000000000602082015250565b60006118b76025836113a0565b91506118c28261185b565b604082019050919050565b600060208201905081810360008301526118e6816118aa565b9050919050565b7f45524332303a20617070726f76652066726f6d20746865207a65726f2061646460008201527f7265737300000000000000000000000000000000000000000000000000000000602082015250565b60006119496024836113a0565b9150611954826118ed565b604082019050919050565b600060208201905081810360008301526119788161193c565b9050919050565b7f45524332303a20617070726f766520746f20746865207a65726f20616464726560008201527f7373000000000000000000000000000000000000000000000000000000000000602082015250565b60006119db6022836113a0565b91506119e68261197f565b604082019050919050565b60006020820190508181036000830152611a0a816119ce565b9050919050565b7f45524332303a207472616e736665722066726f6d20746865207a65726f20616460008201527f6472657373000000000000000000000000000000000000000000000000000000602082015250565b6000611a6d6025836113a0565b9150611a7882611a11565b604082019050919050565b60006020820190508181036000830152611a9c81611a60565b9050919050565b7f45524332303a207472616e7366657220746f20746865207a65726f206164647260008201527f6573730000000000000000000000000000000000000000000000000000000000602082015250565b6000611aff6023836113a0565b9150611b0a82611aa3565b604082019050919050565b60006020820190508181036000830152611b2e81611af2565b9050919050565b7f45524332303a207472616e7366657220616d6f756e742065786365656473206260008201527f616c616e63650000000000000000000000000000000000000000000000000000602082015250565b6000611b916026836113a0565b9150611b9c82611b35565b604082019050919050565b60006020820190508181036000830152611bc081611b84565b9050919050565b6000611bd2826114b3565b9150611bdd836114b3565b925082821015611bf057611bef611739565b5b828203905092915050565b6000611c06826114b3565b9150611c11836114b3565b9250817fffffffffffffffffffffffffffffffffffffffffffffffffffffffffffffffff0483118215151615611c4a57611c49611739565b5b828202905092915050565b7f536166654d6174683a206d756c7469706c69636174696f6e206f766572666c6f60008201527f7700000000000000000000000000000000000000000000000000000000000000602082015250565b6000611cb16021836113a0565b9150611cbc82611c55565b604082019050919050565b60006020820190508181036000830152611ce081611ca4565b9050919050565b7f45524332303a206275726e2066726f6d20746865207a65726f2061646472657360008201527f7300000000000000000000000000000000000000000000000000000000000000602082015250565b6000611d436021836113a0565b9150611d4e82611ce7565b604082019050919050565b60006020820190508181036000830152611d7281611d36565b9050919050565b7f45524332303a206275726e20616d6f756e7420657863656564732062616c616e60008201527f6365000000000000000000000000000000000000000000000000000000000000602082015250565b6000611dd56022836113a0565b9150611de082611d79565b604082019050919050565b60006020820190508181036000830152611e0481611dc8565b905091905056fe45524332303a207472616e7366657220616d6f756e74206578636565647320616c6c6f77616e6365a2646970667358221220a50772a0bc3a5236d8c98487df939a047b95f20e53573397a330e9bdcae12c1264736f6c634300080d0033",
  "immutableReferences": {},
  "source": "// SPDX-License-Identifier: UNLICENSED\npragma solidity >=0.6.12;\n\nimport \"@openzeppelin/contracts/token/ERC20/ERC20.sol\";\nimport \"./SafeMath.sol\";\n\ncontract Token is ERC20 {\n    using SafeMath for uint256;\n    uint256 BURN_TAX = 5;\n    uint256 ADMIN_TAX = 5;\n    uint256 CHARITY_TAX = 5;\n    address public admin;\n    address public charity;\n    mapping(address => bool) public excludedFromTax;\n\n    constructor() ERC20(\"TOKEN\", \"TKN\") {\n        _mint(msg.sender, 1000000 * 10**18);\n        admin = msg.sender;\n        excludedFromTax[msg.sender] = true;\n    }\n\n    function transfer(address recipient, uint256 amount)\n        public\n        override\n        returns (bool)\n    {\n        if (excludedFromTax[msg.sender] == true) {\n            _transfer(_msgSender(), recipient, amount);\n        } else {\n            uint256 burnAmount = amount.mul(BURN_TAX) / 100;\n            uint256 adminAmount = amount.mul(ADMIN_TAX) / 100;\n            uint256 charityAmount = amount.mul(CHARITY_TAX) / 100;\n            _burn(_msgSender(), burnAmount);\n            _transfer(_msgSender(), admin, adminAmount);\n            _transfer(_msgSender(), charity, charityAmount);\n            uint256 recipientAmount = amount\n                .sub(burnAmount)\n                .sub(adminAmount)\n                .sub(charityAmount);\n            _transfer(_msgSender(), recipient, recipientAmount);\n        }\n        return true;\n    }\n\n    function transferFrom(\n        address sender,\n        address recipient,\n        uint256 amount\n    ) public override returns (bool) {\n        if (excludedFromTax[sender] == true) {\n            _transfer(sender, recipient, amount);\n            _approve(\n                sender,\n                _msgSender(),\n                allowance(sender, _msgSender()).sub(\n                    amount,\n                    \"ERC20: transfer amount exceeds allowance\"\n                )\n            );\n        } else {\n            uint256 burnAmount = amount.mul(BURN_TAX) / 100;\n            uint256 adminAmount = amount.mul(ADMIN_TAX) / 100;\n            uint256 charityAmount = amount.mul(CHARITY_TAX) / 100;\n            _burn(sender, burnAmount);\n            _transfer(sender, admin, adminAmount);\n            _transfer(sender, charity, charityAmount);\n            uint256 recipientAmount = amount\n                .sub(burnAmount)\n                .sub(adminAmount)\n                .sub(charityAmount);\n            _transfer(sender, recipient, recipientAmount);\n            _approve(\n                sender,\n                _msgSender(),\n                allowance(sender, _msgSender()).sub(recipientAmount)\n            );\n        }\n        return true;\n    }\n\n    function addExcludedFromTax(address excluded) external {\n        require(msg.sender == admin, \"only admin\");\n        excludedFromTax[excluded] = true;\n    }\n\n    function updateCharity(address _charity) external {\n        require(msg.sender == admin, \"only admin\");\n        charity = _charity;\n    }\n}\n",
  "sourcePath": "C:\\Users\\Farasat\\Desktop\\Mine\\_Blockchain\\Eat The Blocks\\Create Your Own Tokens\\safemoon_clone\\contracts\\Token.sol",
  "compiler": {
    "name": "solc",
    "version": "0.8.13+commit.abaa5c0e.Emscripten.clang"
  },
  "schemaVersion": "3.4.7",
  "updatedAt": "2022-05-02T10:57:47.521Z",
  "devdoc": {
    "kind": "dev",
    "methods": {
      "allowance(address,address)": {
        "details": "See {IERC20-allowance}."
      },
      "approve(address,uint256)": {
        "details": "See {IERC20-approve}. NOTE: If `amount` is the maximum `uint256`, the allowance is not updated on `transferFrom`. This is semantically equivalent to an infinite approval. Requirements: - `spender` cannot be the zero address."
      },
      "balanceOf(address)": {
        "details": "See {IERC20-balanceOf}."
      },
      "decimals()": {
        "details": "Returns the number of decimals used to get its user representation. For example, if `decimals` equals `2`, a balance of `505` tokens should be displayed to a user as `5.05` (`505 / 10 ** 2`). Tokens usually opt for a value of 18, imitating the relationship between Ether and Wei. This is the value {ERC20} uses, unless this function is overridden; NOTE: This information is only used for _display_ purposes: it in no way affects any of the arithmetic of the contract, including {IERC20-balanceOf} and {IERC20-transfer}."
      },
      "decreaseAllowance(address,uint256)": {
        "details": "Atomically decreases the allowance granted to `spender` by the caller. This is an alternative to {approve} that can be used as a mitigation for problems described in {IERC20-approve}. Emits an {Approval} event indicating the updated allowance. Requirements: - `spender` cannot be the zero address. - `spender` must have allowance for the caller of at least `subtractedValue`."
      },
      "increaseAllowance(address,uint256)": {
        "details": "Atomically increases the allowance granted to `spender` by the caller. This is an alternative to {approve} that can be used as a mitigation for problems described in {IERC20-approve}. Emits an {Approval} event indicating the updated allowance. Requirements: - `spender` cannot be the zero address."
      },
      "name()": {
        "details": "Returns the name of the token."
      },
      "symbol()": {
        "details": "Returns the symbol of the token, usually a shorter version of the name."
      },
      "totalSupply()": {
        "details": "See {IERC20-totalSupply}."
      }
    },
    "version": 1
  },
  "userdoc": {
    "kind": "user",
    "methods": {},
    "version": 1
  }
}